:020000040800F2
:10000000381000204D010008E925000831230008C0
:1000100000000000000000000000000000000000E0
:10002000000000000000000000000000ED250008B6
:100030000000000000000000EB250008A5260008D5
:100040005F0100085F0100085F0100085F01000810
:100050005F0100085F0100085F0100085F01000800
:10006000000000005F010008A10700085F01000810
:100070005F0100085F010008952D00084527000872
:100080005F0100085F0100085F0100080000000038
:100090005F0100085F0100085F0100085F010008C0
:1000A0005F0100085F0100085F010008852D00085E
:1000B0005F01000835230008000000000000000078
:1000C00000F002F800F033F80CA030C8083824180B
:1000D0002D18A246671EAB4654465D46AC4201D180
:1000E00000F025F87E460F3E0FCCB646012633427F
:1000F00000D0FB1AA246AB4633431847A03B000092
:10010000C03B00000023002400250026103A01D344
:1001100078C1FBD8520700D330C100D50B607047BF
:1001200010B5002010BD1FB51FBD10B510BD00F0EB
:10013000DFFA1146FFF7F7FF03F014FB00F0F7FAC0
:1001400003B4FFF7F2FF03BC02F07BFE07488047D1
:1001500007480047FEE7FEE7FEE7FEE7FEE7FEE7AB
:1001600004480549054A064B70470000412700082E
:10017000C1000008380A002038100020380C002088
:10018000380C00207047FEB5054610460C46184353
:1001900073D0AE468C460020AD1A01469C4167D311
:1001A0006646002701243D46B61A9D4102D31346F8
:1001B0003A462124654676462F04360C3E432D0CE4
:1001C000B61A9D4104D3150C1B042B4312041034A2
:1001D000654676462F06360A3E432D0AB61A9D41DD
:1001E00004D3150E1B022B431202083465467646D3
:1001F0002F0736093E432D09B61A9D4104D3150F2A
:100200001B012B431201241D65467646AF07B60835
:100210003E43AD08B61A9D4104D3950F9B002B4376
:100220009200A41C65467646EF0776083E436D08AB
:10023000B61A9D411AD392185B41641C16E000184F
:10024000764665464941B71A9D410191009009D310
:100250006046B11A98418E4684460098019900255F
:10026000401C6941DD0752082A435B08641EE6D53D
:100270007246634603B0F0BDFFE700200146C0466A
:10028000C0462A462346F5E70FB4054910B503AA30
:10029000029800F0FDF910BC08BC04B0184700003B
:1002A00000000020F3B50446002081B02062204603
:1002B000E168884700287DD0252802D06268A168BF
:1002C00083E0454F00257F442046E1688847202889
:1002D000064608DB312E06D2B819203800780028EF
:1002E00001D00543F0E7A80701D50420854300208D
:1002F000E0610746A0612A2E0AD0304602F09AFD3E
:10030000002827D0B8000019303E0090866119E01F
:100310000298BA00121902C8916102902046E16861
:100320008847012F064617D1E06900281FDA2020F0
:1003300085431CE000980A21806948430099801990
:10034000303888612046E1688847064602F072FD31
:100350000028EFD1012F0AD02E2E08D12046E168C7
:1003600088470646202005437F1C022FC3DBA06977
:10037000002803DA4042A06101200543E80701D0CC
:1003800010208543002E24D030464138192803D848
:100390000120C00205432036204625603146029ADE
:1003A0001546FFF7BDFE00280CD0012807D0ED1D33
:1003B000E80800E00DE0C0000830029077E72D1D4E
:1003C000029574E762683046A1689047206A401C35
:1003D0006CE7206AFEBD0000F238000030B503462D
:1003E0001D78002D03D00A4603E0AC4201D1181A53
:1003F00030BD1478521C002CF7D15B1CF0E730B5EF
:1004000003461D78002D08D00A461478521C002C93
:1004100003D0AC42F9D15B1CF3E7181A30BD0000E1
:1004200030B5441C03E00178401C00290DD0810741
:10043000F9D10B4BDD0104C8D11A91432940FAD000
:10044000001B0A0603D0C01E30BD001B30BD0A04CD
:1004500001D0801E30BD0902FCD0401E30BD00001E
:100460000101010101E004C0091F0429FBD28B072F
:1004700001D50280801CC90700D002707047002996
:100480000BD0C30702D00270401C491E022904D3BE
:10049000830702D50280801C891EE3E70022EEE775
:1004A0000022DFE7024670B50A4392072AD11E4DAB
:1004B000EE0104C808C9541B9443344017D0D0B28D
:1004C000D9B2401A2106014310D190B299B2401A14
:1004D000210401430AD110021902000A090A401A34
:1004E0002102014302D1100E190E401A70BD9A422A
:1004F000DFD010BA19BA884201D9012070BD00209E
:10050000C04370BD02780B78401C491C002A09D0FA
:100510009A4207D102780B78401C491C002A01D06E
:100520009A42EFD0D01A70BD0101010100220309E7
:100530008B422CD3030A8B4211D300239C464EE0FE
:1005400003460B433CD4002243088B4231D30309BA
:100550008B421CD3030A8B4201D394463FE0C3096C
:100560008B4201D3CB01C01A524183098B4201D384
:100570008B01C01A524143098B4201D34B01C01A6F
:10058000524103098B4201D30B01C01A5241C308E7
:100590008B4201D3CB00C01A524183088B4201D356
:1005A0008B00C01A524143088B4201D34B00C01A42
:1005B0005241411A00D201465241104670475DE057
:1005C000CA0F00D04942031000D3404253400022DA
:1005D0009C4603098B422DD3030A8B4212D3FC2283
:1005E000890112BA030A8B420CD3890192118B4202
:1005F00008D3890192118B4204D389013AD0921118
:1006000000E08909C3098B4201D3CB01C01A5241D2
:1006100083098B4201D38B01C01A524143098B429B
:1006200001D34B01C01A524103098B4201D30B0184
:10063000C01A5241C3088B4201D3CB00C01A5241A9
:1006400083088B4201D38B00C01A5241D9D2430890
:100650008B4201D34B00C01A5241411A00D20146CD
:10066000634652415B10104601D34042002B00D537
:100670004942704763465B1000D3404201B50020F9
:10068000C046C04602BD70477047704770470000C3
:10069000084B70B50D467B4400F013F8044628461D
:1006A00000F022F8002802D00020C04370BD204690
:1006B00070BD00009B30000001694A1C026108788F
:1006C000704700B58FB00291002105910549019353
:1006D00079440391114604906846FFF7E3FD0FB09B
:1006E00000BD0000E5FFFFFFC068802108407047A3
:1006F000754600F025F8AE46050069465346C00829
:10070000C000854618B020B5FFF72AFD60BC002761
:100710004908B6460026C0C5C0C5C0C5C0C5C0C5CD
:10072000C0C5C0C5C0C5403D49008D46704710B525
:100730000446C046C0462046FFF702FD10BD00003B
:1007400000487047D809002070B58C180578401C07
:100750006B075B0F01D10378401C2A1106D1027888
:10076000401C03E00678401C0E70491C5B1EF9D14A
:100770002B0705D40023521E0DD40B70491CFAE739
:100780000378401CCB1A921C03E01D780D70491CA5
:100790005B1C521EF9D5A142D8D3002070BD0000C9
:1007A00010B5034800F058F9024800F055F910BDA3
:1007B000180800206008002030B50E4C0E4A0FE0EB
:1007C0000378D5686355D3685B1CD360D368DD17A5
:1007D000AD0DED18AD0AAD025B1BD360401C491E88
:1007E0000029EDD1054800680168802211430160AD
:1007F00030BD00008C020020040000201007002003
:1008000001480068704700000400002000280FD055
:10081000094801680A68520852000A6001680A68BB
:1008200020239A430A600068016801221143016095
:1008300002490020086070471007002004000020D3
:1008400070B5094C6068A16888420AD007486168A1
:10085000455C6068401C606064216068FFF770FE62
:100860006160284670BD00000400002028020020BE
:100870000A4841688268914201D10020704781682E
:100880004268914203DD81684068081A70474168F8
:1008900064228068511A0818704700000400002084
:1008A0000FB400B5C1B0FF2143AB01316846429A95
:1008B00003F096F8C1B26846FFF77EFF41B008BC6E
:1008C00004B0184772B6FEE710B5214A00219069BE
:1008D000C305204804D5416902231943416191159C
:1008E00093699B0505D54369012423434361630252
:1008F000194393695B0505D5436908242343436184
:10090000E301194393691B0505D543690424234377
:1009100043616302194393699B0405D5436910241D
:10092000234343616302194393699B0304D54469DC
:1009300020231C43446119439369DB0305D54369B4
:10094000402423434361A0020143916110BD000094
:10095000002002404009002070B5054600F052FA20
:100960000646184C0AE0681C08D0002D04D000F0A0
:1009700049FA801BA84201D9032070BDA069C007B5
:10098000F1D1A069800701D50220A061A069C0054E
:1009900011D4A06980050ED4A06940050BD4A069CC
:1009A000000508D4A069800405D4A069800302D49E
:1009B000A069C00303D5FFF787FF012070BD0020A9
:1009C00070BD00000020024030B5014620314A7958
:1009D0000023022A04D00422C2630B71012030BD1F
:1009E000026814680E25AC43146002681468640839
:1009F00064001460446C1C22144001221546006CF3
:100A0000A54045604A7118460B7130BD70B5002491
:100A1000014620314A79022A03D00421C16301240E
:100A200018E0026813680E25AB4313600268136870
:100A30005B085B001360436C1C22134001221546C7
:100A40009D40036C5D604A7100220A71816B002930
:100A500000D08847204670BDF0B4016C0D68016875
:100A60000C68466C1C2304221E401746B7402F42D8
:100A70000ED067070CD50C68A40602D40C6894430A
:100A80000C60416C19408A40016C4A60016B1AE0AD
:100A90000227B74002462F402032002F17D0A70769
:100AA00015D50C68A40605D40C680A25AC430C6067
:100AB00001215171446C02211C40036CA14059601A
:100AC00000211171C16A002918D0F0BC084708271D
:100AD000B7402F4212D0240710D50C680E25AC4326
:100AE0000C60446C01211C400B46A340046C636005
:100AF000C163517100211171416BE4E7F0BC704793
:100B000070B504003CD01F48256814212818FFF751
:100B10000DFD800060641C482064022120462030C6
:100B20000246417129681948E3680140A068666976
:100B30001843236933431843A3691843E3691843EF
:100B4000236A1843084328600121A068890388426A
:100B500010D00D488030836A656C1C210D400F2633
:100B6000AE40B3438362656C63680D40816AAB40FD
:100B70000B4383620020E06301215171107170BD4D
:100B8000012070BDF8FFFDBF000002400F80FFFF95
:100B90000348416801221143416000207047000072
:100BA00000200240F8B5124D0746287C14460E4638
:100BB000012807D0012028740E48FFF7CDFE002839
:100BC00002D00CE00220F8BD00216961022F09D09B
:100BD000012F09D0002F09D00648FFF7BDFE0021E4
:100BE0002974F8BD3460FAE73480F8E73470F6E72A
:100BF0004009002050C3000009494868C0070DD0D3
:100C0000EFF3108072B6074ACA60074ACA6080F3E1
:100C100010884868C00701D0012070470020704745
:100C200000200240EFCDAB8905040302F8B5002394
:100C300003240125C2E032462E469E40B44632408F
:100C400079D00E79B607B60F012E01D0022E17D13A
:100C500086682746B6465E00B74000967646BE4395
:100C6000B646CF68009EB7407646374387604668F1
:100C70006746BE430F79FF06FF0F9F40374347602B
:100C80000E79F643B6070ED0C6682746B4465E0016
:100C9000B646B7406646BE43B4468F687646B74010
:100CA00066463743C7600E79B607B60F022E14D1D9
:100CB000DE08B60036180096366A5F07B446FE0EA8
:100CC0000F27B646B7406646BE43B4460F69764620
:100CD000B74066463743009E376206682746B446EB
:100CE0005E00B646B7406646BE430F79B446BF07BE
:100CF000BF0F7646B7406646374307604E68B60377
:100D0000B60F5AD0304F7E6B2E437E639F082F4E16
:100D1000BF00BE190096B6680F27B4469E07360F6F
:100D2000B646B7406646BE4305273F07B446B842BD
:100D300002D100271AE040E0254FB84201D1012737
:100D400014E0244FB84201D102270FE0224FB842ED
:100D500001D103270AE0214FB84201D1042705E061
:100D60001F4FB84201D1052700E006277646B7405D
:100D700066463743009EB7601A4E36684F68964302
:100D8000FF0300D51643174F3E607E684F689643B9
:100D9000BF0300D51643134F7E60BE684F6896436D
:100DA000FF0200D516430F4FBE60FE684F689643A2
:100DB000BF0200D516430B4AD6605B1C0A68164674
:100DC000DA4000D037E7F8BD0010024000000140D3
:100DD0000004005000080050000C005000100050AB
:100DE000001C005000040140426913460B401B04E4
:100DF00091430B4383617047002A01D081617047A2
:100E00008162704701488068704700001C00002024
:100E100070B5024640325378202B1CD11378012B39
:100E200019D00123137024245470046825689D434D
:100E30002560046825681E03B5432560046825689D
:100E40000D4325600068016819430160202050703F
:100E50000020107070BD022070BD70B50246403297
:100E60005378202B1BD11378012B18D00124147038
:100E70002423537003681D68A5431D6005682B6813
:100E80000F263602B343090219432960006801683E
:100E900021430160202050700020107070BD02209E
:100EA00070BD000070B5040006D025464035687856
:100EB0000026002802D005E0012070BD2E702046DB
:100EC00000F04AF824206870206801684908490049
:100ED00001600F2160680906884321680861216864
:100EE0008A680120C00382438A60E1680129A16801
:100EF00008D021229202114322689160E168022900
:100F000002D005E00143F7E701212268C9025160E0
:100F100021684A680F4B1A434A602168CA688243B5
:100F2000CA60616920690843A16909020843216810
:100F3000C860216AE0690843216808602068016888
:100F40000122114301606664202068702663AE7040
:100F5000002070BD0080000210B586B00446142148
:100F60006846FFF79DFA1149206888421BD1104C52
:100F7000E16A02200143E162E16A01400320059138
:100F800000020090122001900120029003200390A3
:100F90000420049069460748FFF748FEA06B012132
:100FA00049050843A06306B010BD0000005400408E
:100FB000001002400004005002488168027889183D
:100FC000816070471C00002010B5084800240168AB
:100FD000402211430160204600F00AF8002801D0A9
:100FE000012401E000F026F8204610BD0020024058
:100FF00070B504460D4D7D202978C000FFF796FAA4
:1010000001460B480068FFF791FA00F0B7FC002892
:1010100009D1042C07D200222146401E00F022F8FC
:1010200000206C6070BD012070BD00001C0000201D
:10103000280000200448416B012211434163816B69
:10104000020411438163704700100240002805DB51
:10105000C106C90E012088400149086070470000A0
:1010600000E100E010B501F0C3FE10BDF8B5044684
:1010700000780027584D800671D5574E403EB06B22
:10108000C00004D4B06BA9050843B06301275348DE
:101090000168C90511D40168821511430160FFF789
:1010A000B1FE009005E0FFF7ADFE0099401A6428FC
:1010B00037D84A480068C005F5D5326803210905CC
:1010C00060680A400140914208D08103890F0329DA
:1010D00004D13168890301D50120F8BD2A690321B3
:1010E00009040A4022D0084090421FD02078800690
:1010F0001CD528692A6988430121C9040A432A6149
:101100002A698A432A612861C0050FD5FFF77AFE54
:10111000009008E0FFF776FE0099411A30488142BE
:1011200001D90320F8BD28698005F3D561688803DB
:10113000800F032805D132680005824301400A432D
:101140003260286903226168120411400843286153
:10115000002F04D0B16B012000078143B1632078D8
:10116000C00705D0E868A168800880000843E860EF
:101170002078800705D5E8680C218843E16808439A
:10118000E8602078400706D5E86803218902884393
:1011900021690843E8602078000706D5E868032144
:1011A0000903884361690843E8602088C00506D5C3
:1011B000E868032109048843A1690843E8602078AE
:1011C000000606D5E868032189048843E1690843DD
:1011D000E8600020F8BD00004010024000700040B0
:1011E00088130000F8B50E46050038D05E48006848
:1011F000C007C00FB04214D25B4C206840084000CA
:1012000030432060FFF7FEFD074605E0FFF7FAFDDB
:10121000C11B564881427AD82068C007C00FB0422F
:10122000F4D12878524C800705D5E068F021884336
:10123000A9680843E0602878C00752D0686802288F
:1012400006D0032807D0216801280AD0890504E0C8
:101250002168890301E021688901002903DB01205D
:10126000F8BD4907F9E7E168890889000143E160B1
:10127000FFF7C8FD0746686802280AD0032814D083
:1012800001281ED029E0FFF7BDFDC11B3748814270
:101290003DD8E0680007800F0228F4D121E0FFF775
:1012A000B1FDC11B3148814231D8E0680007800F91
:1012B0000328F4D115E0FFF7A5FDC11B2B4881429F
:1012C00025D8E0680007800F0128F4D109E0FFF776
:1012D00099FDC11B2548814219D8E0680007800F9D
:1012E000F5D121480168C907C90FB14217D9016872
:1012F0004908490031430160FFF784FD074608E0D3
:1013000005E0FFF77FFDC11B1848814201D903208A
:10131000F8BD15480068C007C00FB042F1D1287869
:10132000400706D5E068072109028843E9680843B9
:10133000E0602878000707D5E0680721C9028843E4
:101340002969C9000843E06000F03AF8E168094AF9
:101350000906090F515CC840074908600748006842
:10136000FFF746FEF8BD0000002002408813000091
:10137000001002408E3B00082800002020000020C2
:10138000044805490068C968044A4905490F515C89
:10139000C84070472800002000100240A73B00080A
:1013A000044805490068C968044A8904490F515C2A
:1013B000C84070472800002000100240A73B0008EA
:1013C00070B51A4AD3681A490C2018408D000428B9
:1013D0000CD04E00082810D00C2810D05068000403
:1013E000410F0120C003491C884070BD1068C00631
:1013F00001D5084670BD284670BD304670BD9802C4
:101400000C4C000F205C1B029C0FD368641CDB0398
:1014100001D5314603E01268D20600D4294601F016
:10142000C1FC22460023FEF7AEFE70BD0010024054
:1014300000093D009E3B0008FEB505007ED0F74C3C
:10144000E7680C20E6680740012000040640287881
:10145000C00747D0082F05D00C2F0AD10120000467
:10146000864206D1206880033CD568680028E5D014
:1014700038E0012069680004814203D121680143FA
:10148000216011E0052301221B0492049942216886
:1014900002D111432160F1E78143216021680140BD
:1014A0000091206890432060686800280DD0FFF705
:1014B000A9FC009005E0FFF7A5FC0099401A6428FC
:1014C0007ED820688003F6D50CE0FFF79BFC0090E7
:1014D00005E0FFF797FC0099401A6428F0D82068CF
:1014E0008003F6D4287880075DD5E868810604D5A6
:1014F000226820210A43226088430923042F0DD04B
:101500000C2F01D1002E09D000283CD0216899432E
:1015100001432160FFF776FC064628E02168490771
:1015200001D500288AD061681F22120291432A69DE
:101530001202114361602168994300E091E1014387
:101540002160FFF73DFFE16809060A0FB449895C95
:10155000C840B4490860B4480068FFF749FD002856
:1015600074D120E0FFF74EFC801B0228A8D8206829
:101570004007F7D560681F210902884329690902DD
:10158000084360600FE02068400840002060FFF7DB
:1015900039FC064604E0FFF735FC801B02288FD893
:1015A00020684007F7D42878C00661D5002F0DD0F9
:1015B000A86900284BD02068FF210131084300E0D2
:1015C000C6E02060FFF71EFC06462DE0206880057F
:1015D00002D5A8690028A5D060680721490388437F
:1015E000296A084360606068297F0002000A0906D2
:1015F00008436060286A410B0120C003491C8840F1
:10160000E16809060A0F8649895CC8408549086077
:1016100085480068FFF7ECFC002817D128E0FFF7A9
:10162000F1FB801B0228A1D820688005F7D56068EF
:10163000072149038843296A084360606068297F5D
:101640000002000A09060843606011E0E1E0216839
:10165000FF20013081432160FFF7D4FB064604E000
:10166000FFF7D0FB801B022872D820688005F7D4D2
:1016700028786E4E000724D568690028306910D09C
:10168000012108433061FFF7BDFB009005E0FFF743
:10169000B9FB0099401A02285AD830698007F6D55C
:1016A0000FE0400840003061FFF7ACFB009005E020
:1016B000FFF7A8FB0099401A022849D83069800733
:1016C000F6D42878400765D500200290A06BC000B2
:1016D00006D4A06B012109070843A06301200290F2
:1016E00053480168C90511D401688215114301608E
:1016F000FFF788FB009005E0FFF784FB0099401A94
:10170000642825D84A480068C005F5D5FF20AA6896
:101710000130824203D131690143316111E001217D
:101720008902002A07D005231B029A4203D132699D
:101730000A433261EFE7326982433261306988439C
:101740003061A86800280FD0FFF75CFB009007E02D
:101750005EE0FFF757FB0099411A3648814257D89F
:1017600030698005F5D50DE0FFF74CFB009006E0F1
:10177000FFF748FB0099411A2E48814248D830694A
:101780008005F5D40298002804D0A06B0121090738
:101790008843A063686A002865D00C2F4CD00126CE
:1017A00036060228206805D0B0432060FFF72AFBE8
:1017B00005462FE0B0432060FFF724FB074604E016
:1017C000FFF720FBC01B022822D820688001F7D435
:1017D000E96AA86AE2680843296BFD231B049A435F
:1017E00011430843E060206830432060FFF70AFBA4
:1017F000054604E0FFF706FB401B022808D82068D6
:101800008001F7D52FE0FFF7FDFA401B022801D930
:101810000320FEBD20688001F5D424E000100240C2
:101820008E3B0008280000202000002040100240CD
:1018300000700040881300000128EAD0E068012110
:101840000904AA6A014091420BD10F218904EA6A76
:101850000140914205D1032189050840296B884246
:1018600001D00120FEBD0020FEBDF8B504000ED061
:10187000FF27606A0537002500280AD025616561C9
:1018800026464036A562707C002807D00AE0012079
:10189000F8BD6068B842F3D0E561F1E735742046E1
:1018A00000F03EF8022171742068026840239A43D8
:1018B00002602123A26860689B021A4038401043EE
:1018C000E3688A021340184323690B40217D1843C3
:1018D000C907C90F0843A169931019400843E1697A
:1018E000382319400843216A802319400843A16A1C
:1018F00093001940084321680860A0690421000C86
:101900000840616A10231940084321684860206834
:10191000C1699143C1616565012070740020F8BD03
:1019200010B586B0044614216846FEF7B9FD10498B
:101930002068884219D10F48816B0122920311431C
:101940008163C26A02210A43C262C06A01910840EF
:1019500005900F20000300900021032002910491C4
:10196000039069460448FFF761F906B010BD000016
:10197000003800400010024000040050094910B532
:10198000401E884201D9012010BD074C606103212F
:10199000081F01F02DFA0020A0610720206100201F
:1019A00010BD0000FFFFFF0000E000E0F0B50246C0
:1019B0002032137E012B21D0012515760223537688
:1019C00006687468B3687027BC430F682743776064
:1019D0000068AC07A04208D0094CA04205D0094CD1
:1019E000A04202D0084CA04204D180244968A343FD
:1019F00019438160557600201076F0BD0220F0BDBD
:101A000000040040000801400014014070B50500CA
:101A100005D02C462034607E002802D006E001204C
:101A200070BD00202076284600F010F80220607675
:101A3000291D286800F08EFE0120A077A076E076B0
:101A4000207760776076002070BD000010B50068D8
:101A50000121890788420CD10648816B012211437C
:101A60008163002211460F20FFF7FCFA0F20FFF7D9
:101A7000EDFA10BD00100240F8B5054604462035C9
:101A8000287E0026012817D00120287602206876BB
:101A9000226890687727FF23B8431B029843906021
:101AA0000868502838D00EDC20284FD006DC0028EB
:101AB0004CD010281ED149E00220F8BD302845D076
:101AC000402817D13AE060282ED0702819D0012282
:101AD0001203801A0FD090420CD1CB684A688968F3
:101AE000206800F06BFE2068816801229203114398
:101AF000816000E0012601206876002028763046CB
:101B0000F8BDCB684A688968206800F057FE2168F4
:101B1000886838438860EEE7CA684968206800F042
:101B2000C7FE5021206806E0CA684968206800F0B6
:101B3000D0FE6021206800F04CFEDCE7CA684968EE
:101B4000206800F0B5FE40212068F4E722680146D5
:101B50001046F0E7704770B504460068016900253B
:101B6000C9438907002915DBC168C943890711D416
:101B7000E91E0161012020762068806980072046E7
:101B800002D0FFF7E7FF04E000F09EF8204600F0E7
:101B900024F9257620680169C943490717D4C1682B
:101BA000C943490713D40421C943016102202076A7
:101BB000206880698005800F204602D0FFF7CAFFA9
:101BC00004E000F081F8204600F007F9257620684F
:101BD0000169C943090716D4C168C943090712D46A
:101BE0000821C9430161042020762068C06980076C
:101BF000204602D0FFF7AEFF04E000F065F8204673
:101C000000F0EBF8257620680169C943C90617D4AE
:101C1000C168C943C90613D41021C9430161082012
:101C200020762068C0698005800F204602D0FFF72B
:101C300091FF04E000F048F8204600F0CEF8257649
:101C400020680169C943C90708D1C168C943C907E8
:101C500004D1891E0161204600F0C0F820680169A6
:101C6000C943490609D4C168C943490605D440217E
:101C7000C9430161204600F0B2F870BD10B586B0CE
:101C8000044614216846FEF70BFC012120688907F1
:101C9000884214D10B48C16A01221143C162C06A53
:101CA0000221104005900720009000200290039030
:101CB00001910491052069460007FEF7B7FF06B0C1
:101CC00010BD0000001002407047F8B506460446FB
:101CD0002036307E00270D4601280ED001203076B8
:101CE000002A0CD0042A1BD0082A2FD00C2A3ED060
:101CF0000127002030763846F8BD0220F8BD206864
:101D000000F06FFD2068816908221143816120681D
:101D1000826904218A43826120688169EA6812E04D
:101D2000206800F076FD206882690121C9020A431B
:101D30008261206881690122920291438161206859
:101D40008169EA68120211438161D2E7206800F0DC
:101D500079FD2068C16908221143C1612068C26908
:101D600004218A43C2612068C169EA6812E02068E0
:101D700000F083FD2068C1690122D2021143C161D4
:101D80002068C269012189028A43C2612068C16951
:101D9000EA6812021143C161ABE770B5050005D0D6
:101DA0002C462034607E002802D006E0012070BD61
:101DB00000202076284600F00FF802206076291DCA
:101DC000286800F0C7FC0120A077A076E076207795
:101DD00060776076002070BD70477047704770472D
:101DE0007047704770470000F8B502680446D06934
:101DF00011689668A24B05461D402023002D75D022
:101E0000F707A04DFF0FBC460D402F436DD0254670
:101E1000C7078035002F06D0CF0504D501271762EC
:101E20002A683A432A60820708D5F20706D0276855
:101E300002223A622A6804273A432A60420708D5F8
:101E4000F20706D02668042232622A68022632434C
:101E50002A6002070AD50A461A406646324305D070
:101E60002668082232622E6816432E60020508D5C5
:101E70004A0106D501222668D20232622A681A4334
:101E80002A602A68002A39D0800606D5880604D53B
:101E9000616E002901D0204688472868216889683A
:101EA000490602D4282108422DD0204600F0C6FD64
:101EB00021688868400622D5EFF31080012282F362
:101EC00010888B68402293438B6080F31088206FCA
:101ED000002814D06C498163206FFEF797FD00281D
:101EE0000CD0206F816B08E000E012E0850610D571
:101EF0008D060ED5616EA9E020468847F8BD2046C4
:101F0000FFF770FFF8BD2046FFF76CFF0020286048
:101F1000F8BD256E012D7CD1C5067AD5CD0678D5C4
:101F20001026166222689068254640064035002833
:101F300046DA216F086840680004000CE8D02F8B57
:101F40008742E5D9688308680068800633D4EFF3D8
:101F50001080012181F3108811683701B9431160A5
:101F600080F31088EFF31080012181F3108821683D
:101F70008A68520852008A6080F31088EFF310805C
:101F8000012181F3108821688A684027BA438A605A
:101F900080F31088E36700202066EFF310800121B2
:101FA00081F3108821680A68B2430A6080F31088C0
:101FB000206FFEF709FD288B698B401A81B231E052
:101FC000288B698B401A81B2688B0028A0D0002929
:101FD0009ED0EFF31080012585F310881568FF2748
:101FE0002137BD43156080F31088EFF31080012284
:101FF00082F31088226895686D086D00956080F303
:102000001088E367002020666066EFF310800122ED
:1020100000E00BE082F3108822681368B34313607A
:1020200080F310882046FFF7DBFEF8BDC50208D517
:10203000750206D50120000510622046FFF7D1FE8B
:10204000F8BD050606D50D0604D5A16E002900D001
:1020500052E7F8BD4006FCD54806FAD52046EFF316
:102060001081012484F3108814684025AC43146067
:1020700081F3108883670021816600F058F9F8BD6C
:102080000F08000020010004292A000810B50400F0
:1020900003D0A06F002802D007E0012010BD00216E
:1020A00074200155204600F027F82420A0672068FE
:1020B0000168490849000160204600F0EFFC012852
:1020C000ECD0606A002802D0204600F015FC2068A1
:1020D00041680922D20291434160206881682A2226
:1020E000914381602068016801221143016020460C
:1020F00000F068FC10BD0000F0B587B00646142162
:102100006846FEF7CDF94D4F35684D490220032250
:1021100004230024BD421AD18D6B460435438D63E0
:10212000CD6A0543CD62C96A0190014005919102D3
:10213000009102940493039269464248FEF776FDAB
:10214000002211461D20FEF78DFF1D2020E03E4F8E
:10215000BD4221D14D6B0126B60335434D63CD6A97
:1021600001263543CD62C96A0190314005910321B2
:1021700049020091052002940493039269460007E6
:10218000FEF754FD002211461B20FEF76BFF1B20BB
:10219000FEF75CFF07B0F0BD2C4FBD42FAD18D6B4E
:1021A0000127FF043D438D63CD6A1D43CD62C96A9B
:1021B00001901940059103218902062000910490A5
:1021C0000294039269462248FEF730FD224D2148D1
:1021D000AC600C27EC6081C5EC6080202C61A860AD
:1021E0002020AC6168611C48083DFEF789FC00288E
:1021F00001D0FEF767FB3567AE621648164D143006
:10220000483581C510206C602860EC602C616C61E1
:102210008020AC61A86028460838083DFEF770FCB5
:10222000002801D0FEF74EFBF566002211460E2075
:10223000AE62FEF717FF0E20AAE70000004800403C
:10224000001002400004005000380140004C0040E3
:10225000000800501C00024018080020FFB504468A
:10226000806F83B017460D4620285ED1002D0AD01E
:10227000002F08D0A168C001814207D12069002841
:1022800004D1E80702D0012007B0F0BD204660303D
:102290000090007D012848D00098012101750020A0
:1022A000802108512120A067FEF7ACFD264640366C
:1022B0000190378277820120A1680003814202D118
:1022C0002069002805D02F460025009900200875B8
:1022D00011E00027F9E700228021204600F0E8FC09
:1022E000002815D1002F15D02168387888627F1C0E
:1022F000708A401E7082708A019B002806980090A8
:10230000E9D100224021204600F0D2FC002808D06C
:102310000320B9E728882168C005C00D8862AD1C7C
:10232000E6E72020A0670020AEE70220ACE7704778
:10233000FEE7000010B50248FFF756FD10BD000093
:102340008C06002008B50848016B01221143016387
:10235000006B10400022009011460A20FEF782FE1A
:102360000A20FEF773FE08BD00100240F0B587B0EA
:1023700014216846FEF794F81748C26A04210A43FC
:10238000C262C26A0A400592C16A01242143C16245
:10239000C16A21400591C16A02252943C162C06A10
:1023A0000F4F2840059022460C493846FEF724FD81
:1023B00060030026694651C1694638460396FEF718
:1023C00035FC0F206A46039551C269463846FEF730
:1023D0002DFC07B0F0BD0000001002400F200000EF
:1023E0000008005010B513481149016012494160BE
:1023F000002181600161416181610122C161C2608E
:102400000162FEF74FFD002801D0FEF75BFA0021C4
:102410000848FEF7FDFC002801D0FEF753FA002122
:102420000448FEF71AFD002801D0FEF74BFA10BD54
:1024300000540040DC010020BB7C700010B50C484B
:102440000A490160E1214902416000218160C160C7
:10245000016181610C22016242614162FFF716FE57
:10246000002801D0FEF72EFA10BD00000048004001
:102470008C06002010B50E480C490160FF21053183
:10248000416000218160C16001614161C16101223F
:10249000016292044162826181620721C162FFF799
:1024A000E4F9002801D0FEF70DFA10BD0038004015
:1024B000A808002010B58AB000240494059406945E
:1024C0000794089401212A480994009401940294E5
:1024D0008907039412C0046084602649C460416087
:1024E0000838FFF793FA002801D0FEF7EBF9012036
:1024F0000003049004A91E48FFF7BEFA002801D08B
:10250000FEF7E0F91A48FFF748FC002801D0FEF773
:10251000D9F9089408A916480994FFF747FA002842
:1025200001D0FEF7CFF960200090019402940022C0
:10253000694603940E48FFF7C8FB002801D0FEF758
:10254000C1F9042269460A48FFF7BFFB002801D001
:10255000FEF7B8F9082269460548FFF7B6FB0028E0
:1025600001D0FEF7AFF90248FFF788FB0AB010BDB3
:1025700000090020FFFF000010B50C480A49016067
:10258000E1214902416000218160C16001618161F6
:10259000C1610C22016242614162FFF777FD0028B0
:1025A00001D0FEF78FF910BD003801401007002060
:1025B00010B50C480A490160E1214902416000213F
:1025C0008160C16001618161C1610C22016242616F
:1025D0004162FFF75BFD002801D0FEF773F910BDE3
:1025E000004C004094070020FEE770477047000051
:1025F000F0B58DB005460BA81446009002AB01AAB9
:10260000284601F027F9234B002601280CD0022888
:102610000ED00B9F2049214A02A8002F10D00F6036
:10262000019B4B60002124E0002C05D0186802E0DB
:10263000002C01D0586820602E7002200DB0F0BD33
:102640000F680B977F1C03D1002C01D09B6823607F
:102650004B680021019304E08A00104F491CBF58C9
:1026600087509942F8DB06E0880002AF3F581750C8
:10267000491C9942F8DB002C00D026600B980C21F5
:102680004843074922464018436802A901989847E1
:102690002E70D3E7B03B0008D0010020580900207D
:1026A0002C00002010B5FEF787FC10BD10B59AB0C5
:1026B00034216846FDF7F4FE142115A8FDF7F0FE5D
:1026C00020210DA8FDF7ECFE1C4801680322D20270
:1026D0009143C21489180160012102200391102145
:1026E00000900491099040040B90000100240C908C
:1026F0000A946846FEF7A0FE002801D072B6FEE7F5
:102700000F20159003201690179418940121199406
:1027100015A8FEF767FD002801D072B6FEE70D2070
:1027200012940D900F9411940DA8FEF79FFC0028B1
:1027300001D072B6FEE71AB010BD00000070004074
:102740007047000010B50248FFF705FA10BD000001
:1027500000090020F0B502680124A407144D154EAD
:10276000154FA04205D0A84203D0B04201D0B842D4
:1027700004D11346702293434A681A43A04205D0FD
:10278000A84203D0B04201D0B84204D103231B02B7
:102790009A43CB681A4380239A430B691A43026019
:1027A0008A68C2620968816201214161F0BD00004E
:1027B00000040040000801400014014030B5846866
:1027C000FF252D021B021343AC430B4323438360BD
:1027D00030BD826870239A430A4307210A4382600E
:1027E000704730B5026A520852000262026A4568B8
:1027F00083697024A3439C080B68A400234302242C
:10280000A2438C6845601443836149684163046254
:1028100030BD30B5026A10239A430262036A4568EC
:10282000826973242402A2430C68240214432022E8
:1028300093438A68456012011A4384614968816341
:10284000026230BD30B5026AFF2301339A4302624F
:10285000026A4568C3697024A3439C080B68A400FE
:10286000234301246402A2438C684560240214437C
:10287000C3614968C163046230BD30B5026A012397
:102880001B039A430262036A4568C26973242402E7
:10289000A2430C68240214430122520393438A6822
:1028A000456012031A43C46149680164026230BD85
:1028B00030B5036A046A6408640004628469F02520
:1028C000AC43120122430A24A3430B4382610362F7
:1028D00030BD30B5036A1024A34303628469036AE0
:1028E0000F252D031203AC432243A024A343090167
:1028F00019438261016230BD10B5818CC90707D0D0
:1029000001684A6801235B049A43836A1A434A6058
:10291000818C890707D501684A6801231B049A4303
:10292000C36A1A434A60818C490707D501684A681F
:1029300001239B049A43036B1A434A60818C090765
:1029400007D501684A680123DB039A43436B1A43A6
:102950004A60818CC90607D50268916801231B0370
:102960009943836B19439160818C890607D501686F
:102970008A6801235B039A43C36B1A438A60818C84
:10298000490612D503685A6801210905046C8A4377
:1029900022435A60026C8A4207D1026851680323BD
:1029A0005B059943436C19435160818C090607D537
:1029B00001684A680123DB04806C9A4302434A6041
:1029C00010BD0000F8B50446002680300660FEF712
:1029D00019FA054620680068124F000709D5012141
:1029E0002B46002249052046009700F061F9002897
:1029F0000DD12068006840070BD501212B4600222D
:102A000089052046009700F053F9002801D00320E3
:102A1000F8BD2020A067E067266660342675002098
:102A2000F8BD0000FFFFFF0110B5806A00220146DB
:102A300040314A834A82FFF7D5F910BD10B5EFF354
:102A40001081012282F3108802681368FF24213468
:102A5000A343136081F31088EFF31081012282F306
:102A60001088026893685B085B00936081F31088AC
:102A7000016E01290BD1EFF31081012282F310883E
:102A8000026813681024A343136081F31088202187
:102A9000C16700210166416610BD0000F8B504461B
:102AA000016880682269E669104362690025324343
:102AB0001043754B0A68754E324002430A60206825
:102AC0004168032212039143E26811434160216887
:102AD000A069994201D0226A10438A680B26360207
:102AE000B24302438A606A4922686A488A420CD12A
:102AF000C0688007800F06D001283FD002283BD055
:102B0000032827D124E0012725E063498A420AD11E
:102B1000C0680C2108402DD004282FD008282BD0C5
:102B20000C2817D114E05D498A4223D05C498A42BF
:102B300020D09A420ED1C16803208002014019D0F2
:102B400001208002091A19D0091A15D0814201D139
:102B5000082700E010274F495248403986009A4222
:102B600032D1002F0CD0022F0DD0042F10D0082FFF
:102B70007FD126E00027EEE70227ECE70427EAE70B
:102B8000FEF7FEFB06E00968C90605D4304603E0FF
:102B9000FEF716FC002872D062685100511881427D
:102BA00067D81103814264D3010E06025008002346
:102BB00030185941FDF7E7FA03210902411A3A4A50
:102BC00055E00120C003E7E70122E369D203934205
:102BD0002BD13B0000F0FEF80906090C4D114D4DBC
:102BE0004D274D00FEF7CCFB09E0FEF7D9FB06E0D0
:102BF0000968C90605D4304603E0FEF7E1FB00286A
:102C00003DD0616840004A088018FDF78FFC80B213
:102C100002462649103A8A422BD8491C0140000737
:102C2000400F084329E01046EBE73B0000F0D2F8E4
:102C30000906090C2112212121232100FEF7A0FB06
:102C40000AE0FEF7ADFB07E00968C90606D4304686
:102C500004E00EE0FEF7B4FB002810D061684A08DB
:102C60001018FDF763FC80B20146104A10399142FA
:102C700003D9012503E01046F0E72168C860002071
:102C80006066A0662846F8BD00480040F369FFEF83
:102C9000003801404010024000440040004C004019
:102CA0000050004000093D00FFFC0F00EFFF000056
:102CB000FFB581B005461746044660350A9E55E0CB
:102CC000701C53D0FEF79EF80499401AB04230D8D9
:102CD000002E2ED020680168490747D5C069C0433F
:102CE000000543D401202168C0020862EFF3108080
:102CF000012181F3108821680B68FF22A1329343E0
:102D00000B6080F31088EFF31080012181F31088AD
:102D100021688A68520852008A6080F31088202057
:102D2000A067E0678034206000202875032005B08C
:102D3000F0BDEFF31080012181F3108821680B684A
:102D4000FF22A13293430B6080F31088EFF31080D1
:102D5000012181F3108821688A68520852008A6034
:102D600080F310882020A067E067DDE72068C16954
:102D70000298884304D00020B842A1D00020D6E7B2
:102D80000120F9E710B50248FFF72EF810BD00004A
:102D90001007002010B50248FFF726F810BD00000C
:102DA00094070020F8B5040C8BB2264682B25E432D
:102DB0000D0C1046370C5843360480190021794118
:102DC00016466E43370C36048019794126466E4309
:102DD0008919F8BD30B47446641E2578641CAB4272
:102DE00000D21D46635D5B00E31830BC184700004D
:102DF0008307FF22DB0E9A408907090E99400028BD
:102E000008DB830809489B001B1818689043084397
:102E1000186070470007000F0838830804489B00BB
:102E20001B18D86990430843D861704700E400E05C
:102E300000ED00E030380A2801D201207047002060
:102E40007047704700B500F083FC0028FBD100BD3F
:102E500010B528A0FDF724FD27A0FDF721FD28A02F
:102E6000FDF71EFD27A0FDF71BFD33A0FDF718FDA4
:102E70003FA0FDF715FD4DA0FDF712FDFFF7E2FFA6
:102E800055A0FDF70DFDFFF7DDFF60A0FDF708FD84
:102E9000FFF7D8FF66A0FDF703FDFFF7D3FF6FA094
:102EA000FDF7FEFCFFF7CEFF77A0FDF7F9FCFFF77B
:102EB000C9FF80A0FDF7F4FCFFF7C4FF88A0FDF771
:102EC000EFFCFFF7BFFF90A0FDF7EAFCFFF7BAFFAA
:102ED00097A0FDF7E5FCFFF7B5FFA3A0FDF7E0FC29
:102EE000FFF7B0FFADA0FDF7DBFCFFF7ABFF002065
:102EF00010BD00000D0A000048454C500A0D0000AE
:102F00002D0A0D006C65642020202020203A2049E5
:102F10006E646976696475616C6C7920636F6E7438
:102F2000726F6C20746865206F6E20626F617264CE
:102F3000206C6564730D0A006D6F646275732020E8
:102F4000203A20536574206D6F6462757320646548
:102F5000766963657320616E642072656769737456
:102F600065727320746F2075706C696E6B0D0A004A
:102F7000636F756E74202020203A2052652F5365B0
:102F8000742074686520636F756E74657273206158
:102F90006E6420736574206465626F756E6365206E
:102FA000696E74657276616C0D0A000074687265F2
:102FB00073686F6C643A2053657420646576696346
:102FC0006520616C61726D207468726573686F6CE6
:102FD00064730D0A00000000666C61736820202095
:102FE000203A20536176652F6C6F61642F657261A2
:102FF000736520636F6E66696775726174696F6E61
:1030000061206E6420646174610D0A006D6F6465F7
:1030100020202020203A20536574207468652064A5
:103020006576696365206D6F64650D0A00000000B8
:1030300074696D6520202020203A20536574206F2C
:1030400072207669657720746865206465766963A7
:10305000652074696D650D0A0000000077616B657D
:1030600075702020203A20536574207468652064B0
:1030700065766963652077616B65757020696E742C
:10308000657276616C0D0A0072656A6F696E202048
:10309000203A2053657420746865206465766963FE
:1030A000652072656A6F696E20696E7465727661FB
:1030B0006C0D0A0075706C696E6B2020203A2053ED
:1030C000657420746865206465766963652077613E
:1030D0006B65757020696E74657276616C0D0A009F
:1030E0006170706B65792020203A204765742F53FA
:1030F0006574207468652044657669636520417055
:10310000706B65790D0A000061707065756920202B
:10311000203A204765742F536574207468652044F5
:103120006576696365204170706575690D0A0000F8
:103130006368616E6E656C20203A20436F6E66692D
:10314000677572652044656661756C74206368619B
:103150006E6E656C206C69737420666F72204155C9
:103160003931350D0A00000073686F772020202068
:10317000203A20446973706C617920616C6C206323
:103180006F6E66696775726174696F6E20696E66CD
:103190006F726D6174696F6E0D0A000068656C7006
:1031A00020202020203A20446973706C61792074BB
:1031B000686973206D6573736167650D0A000000AF
:1031C00010B500F023F8012010BD000010B502A0DA
:1031D000FDF766FB10BD000055736167653A206C12
:1031E0006564205B6572726F727C7478647C72783F
:1031F000647C73746174655D205B6F6E7C6F666662
:103200007C746F67676C655D0D0A000070B5002403
:103210000D46022834D14EA16868FDF743F9002815
:103220000CD04CA16868FDF73DF9002809D04AA1EF
:103230006868FDF737F9002802D021E0012400E09A
:10324000022447A12868FDF72DF9464E00281AD020
:1032500045A12868FDF726F9002849D044A128682F
:10326000FDF720F9002851D042A12868FDF71AF98E
:10327000002856D040A12868FDF714F900285BD03B
:10328000FFF7A4FF70BD012C11D0022C1FD001222A
:1032900011463046FDF7B0FD012202213046FDF710
:1032A000ABFD012204213046FDF7A6FD48E00022D7
:1032B00001213046FDF7A0FD002202213046FDF736
:1032C0009BFD002204213046FDF796FD3BE00121E5
:1032D0003046FDF789FD02213046FDF785FD0421CA
:1032E0003046FDF781FD30E03046FDF785FD70BDCD
:1032F000012C04D0022C04D001220121F4E7002289
:10330000FBE701213046FDF76FFD70BD012C04D0B5
:10331000022C04D001220221E6E70022FBE7022171
:10332000F0E7012C04D0022C04D001220421DBE7B9
:103330000022FBE70421E5E7012C04D0022C04D095
:1033400001220821D0E70022FBE70821DAE700008C
:103350006F6E00006F666600746F67676C650000D3
:10336000616C6C00000800506572726F72000000A2
:10337000747864007278640073746174650000008E
:10338000FEE7000010B504A0FDF78AFA0120FDF762
:103390003DFA012010BD000052756E6E696E670D1A
:1033A0000A000000F0B5B3B00C460746402112A851
:1033B000FDF776F80126002002AD2854401C402875
:1033C000FBDB012F63DB33A12068FDF76BF80028DE
:1033D00005D031A12068FDF765F8002833D130A071
:1033E000FDF75EFA32A0FDF75BFA402222A9002029
:1033F00000F074F933A0FDF753FA402202A900202F
:1034000000F07CF937A0FDF74BFA402212A900200A
:1034100000F064F9002012A90A5C2B5C9A4200D0EB
:103420000026401C4028F7DB002E01D036A000E02B
:103430003AA0FDF735FA3EA0FDF732FA402222A964
:10344000002000F05BF913A12068FDF72BF800289D
:1034500005D03CA12068FDF725F8002805D13AA049
:10346000FDF71EFA3AA0FDF71BFA0AA12068FDF746
:1034700019F8002805D043A12068FDF713F80028AB
:1034800005D142A0FDF70CFA43A0FDF709FA01208F
:1034900033B0F0BD616C6C00666C61736800000055
:1034A0000D0A464C4153482026204932430D0A005C
:1034B0004261636B696E672075702070616765207B
:1034C000300D0A0057726974696E6720417272612B
:1034D0007920746F20466C617368205061676520A5
:1034E000300D0A0052656164696E67204172726135
:1034F000792066726F6D20466C6173682050616739
:103500006520300D0A000000466C61736820436836
:1035100065636B204F4B0D0A00000000466C617321
:103520006820436865636B204641494C0D0A0000E2
:10353000526573746F72696E6720506167652030E1
:103540000D0A00006C6564000D0A4C45440D0A002C
:10355000546F67676C696E6720524544206C6564E0
:103560002070696E0D0A507265737320416E792068
:103570006B657920746F20636F6E74696D75650D6E
:103580000A00000075617274000000000D0A5541C8
:1035900052540D0A0000000053656E64696E672086
:1035A000537472696E67206F6E20706572697068FF
:1035B0006572616C20554152540D0A5072657373E7
:1035C00020616E79206B657920746F20636F6E7453
:1035D000696E75650D0A0000FFB505463E480C464C
:1035E00095B00168139120991F9F490601D5406845
:1035F00013901898801E232802D3002019B0F0BD24
:103600002098C00701D0302000E020201290002038
:1036100011902098800707D5002A05DA2D201190F7
:103620001E985242401E1E900026002A15D01046B9
:103630001899FCF77BFF139A525C69468A55761CF1
:103640000200F4D1BE4200DD374620991E98CA0719
:10365000C01B2021002A0AD00DE0302069460870E6
:103660000126EFE72970641E6D1C002C31D0024644
:10367000401E002AF6DC119A002A04D02A70641E2B
:103680006D1C002C25D00246401E002A07DD129A30
:10369000F4E72A70641E6D1C002C01D119E0302261
:1036A0003B467F1EB342F4DC6A463346761E002B4F
:1036B0000BDD935D2B70641E6D1C002CF5D108E0B2
:1036C0002970641E6D1C002C03D00246401E002A87
:1036D000F6DC284692E7000014000020064B80012B
:1036E000C01803E003780B70401C491C1346521E9F
:1036F000D2B2002BF6D1704700000808F8B5164684
:1037000007460D46FDF778FA0024BF010BE0084894
:10371000391909182A780020FDF744FA002806D143
:10372000641CE4B26D1CB442F1D3FDF731FAF8BD6C
:103730000000080813B5044B012269460348FEF750
:103740008DFD00981CBD0000FFFF00001007002049
:10375000034800680168802211430160002070471F
:1037600010070020FDF730FCFEF7A0FFFEF7FEFD7E
:10377000FEF7E8FDFEF79EFEFEF7FEFEFEF718FFE1
:10378000FEF730FEFEF776FEFEF758FE02A0FCF7CD
:103790007BFD00F00DF8FEE748656C6C6F2C205443
:1037A0006865726D6F6B6F6E21200D0A0D0A000047
:1037B00070B5FDF727FB054615A0FDF771F8FFF77B
:1037C00041FB0020FDF722F81E247D26F60021464D
:1037D0001DA0FDF765F8FFF735FB0FE0FFF732FBA3
:1037E00008E0FFF72FFB00F0A9F9FDF709F8002822
:1037F00000D10024FDF704F80028F2D1FDF702FB08
:10380000401BB042EAD9641E002CE0DC70BD000011
:10381000507265737320616E79206B657920746FC7
:1038200020656E74657220434C492077697468691D
:103830006E20746865206E6578742033302073655F
:10384000636F6E64730D0A00253032642E2E2E0DC8
:103850000A000000FFB583B005460C9CFCF7E0FDB4
:10386000009033A12846FCF7CAFD0746451930A150
:103870002846FCF7B3FD0646C01901900020A85564
:103880002C4F20600C21484339582846FCF70AFE8B
:10389000002804D02068401C20602328F2DB206828
:1038A000232811D00C214843C0198068049908428C
:1038B00002D1022007B0F0BDAC190026019D059889
:1038C000641C6D1C066022E00120F3E71AA120466B
:1038D000FCF795FD451924182078002821D02228CE
:1038E00021D015A12046FCF779FD014605986D18F9
:1038F00000688200069884500598059A006864184C
:10390000401C1060207800280BD02670641C0098A2
:10391000854206D22078002803D005980068082840
:10392000D4DD0020C6E7641C04A120466D1CDAE744
:10393000200000002C000020203D0000220000009C
:10394000F8B5234C0025A078224E01283AD122A0B8
:1039500000F00CF9A570657034E0FCF771FF0746C4
:103960000A280FD004DC032F1BD0082F04D120E03D
:103970000D2F0CD01B2F25D000F003F960783754A1
:10398000401C1EE00D2000F0FCF8384602E000F07C
:10399000F8F80A2000F0F5F8607801213554A1709C
:1039A000F8BD65700A2000F0ECF80BA000F0DEF81E
:1039B00008E06078002805D008A000F0D7F860780B
:1039C000401E6070FCF754FF0028C6DC0020F8BDE4
:1039D000D801002078090020243E000008200800BB
:1039E000FFB585B0074606981646002802DC002081
:1039F00009B0F0BD401E3C4603908EE00399E21BE7
:103A00008A4270DA252801D0207045E072780020C3
:103A1000761C302A00D101200021C943303A0D46DE
:103A2000092A0BD8002532460A2312785D43303D1F
:103A3000761C55193278303A092AF4D98C463178F7
:103A40000A23692950D006DC582948D063291AD0A6
:103A5000642906D148E0732920D075294CD07829F3
:103A60003FD0252902D025212170641C0399E21B37
:103A70008A4241DA3178002939D02170641C37E05C
:103A80002070641C00E020206D1E002DF8DC0898DA
:103A900001782170001D0890641C3DE0089802C860
:103AA00000910890002901D0084601E021A0009073
:103AB000FCF7B6FC202101E02170641C2A466D1E33
:103AC0008242F9DC002107E0009A491C127822703A
:103AD000009A521C641C00928142F5DB1CE04021DC
:103AE0000843102308E020E00221084304E0761E8A
:103AF0000399E21B8A420FDB8107089904C90891E8
:103B00006146019102900698E11B411A00952046FA
:103B1000491EFFF761FD0446761C3078002800D06E
:103B20006CE70399E21B8A42FADA00202070E01B5E
:103B30005EE700003C4E554C4C3E000008B50021AD
:103B4000084800910278002A00D00170FFF7F8FEC3
:103B5000002805D06A4601210348FEF749FD0120EF
:103B600008BD0000D80100207809002010B50446E7
:103B7000FCF756FC0104090C02D02046FCF71CFEA1
:103B800010BD01B501216846FCF716FE08BD000016
:103B900000000000000001020304060708090304F6
:103BA00006080C1018203000000000010203040079
:103BB000803C0008443C0008603C00080400000809
:103BC00000000000000000020001000010000000E2
:103BD0003031323334353637383941424344454643
:103BE0004748494A4B4C4D4E4F50515253545556ED
:103BF0005758595A000000003031323334353637C7
:103C000038396162636465666768696A6B6C6D6E9A
:103C10006F707172737475767778797A000000002E
:103C2000212100006C65640072756E0068656C701F
:103C3000000000007265626F6F7400007465737439
:103C4000000000004572726F720D0A5065726D6956
:103C50007373696F6E2064656E6965640D0A000098
:103C60004572726F720D0A4E6F2070726576696FC1
:103C7000757320636F6D6D616E640D0A0000000046
:103C80004572726F720D0A436F6D6D616E64206EC6
:103C90006F7420666F756E640D0A0000BC3C0008EE
:103CA00000000020DC01000048070008003D00087B
:103CB000DC0100205C0E000004010008011413F870
:103CC0003B1B08D00432019204122013203C14083C
:103CD000512E1B08FF019A2C0C1A280C4B85330C13
:103CE0001A240C4BC1310C1A3C0C5AA5181A340C6E
:103CF0005A810C01FF015D1AFF01411A0102000007
:04000005080000C12E
:00000001FF
