:020000040800F2
:1000000088090020890100082925000871220008BC
:1000100000000000000000000000000000000000E0
:100020000000000000000000000000002D25000876
:1000300000000000000000002B2500082F2500080C
:100040009B0100089B0100089B0100089B01000820
:100050009B0100089B0100089B0100089B01000810
:10006000000000009B010008DD0800089B0100085B
:100070009B0100089B010008152E0008D1250008EF
:100080009B0100089B0100089B0100080000000084
:100090009B0100089B0100089B0100089B010008D0
:1000A0009B0100089B0100089B0100089B010008C0
:1000B0009B010008752200080000000000000000FD
:1000C00000F002F800F050F80CA030C808382418EE
:1000D0002D18A246671EAB4654465D46AC4201D180
:1000E00000F042F87E460F3E0FCCB6460126334262
:1000F00000D0FB1AA246AB4633431847A832000093
:10010000C8320000103A02D378C878C1FAD8520732
:1001100001D330C830C101D504680C6070470000BD
:100120000023002400250026103A01D378C1FBD813
:10013000520700D330C100D50B60704710B5642959
:1001400002D100F01DF910BD782902D100F04EF95E
:1001500010BD732902D100F04DFB10BD002010BD71
:100160001FB51FBD10B510BD00F08CFB1146FFF789
:10017000F7FF02F043FF00F0A4FB03B4FFF7F2FF28
:1001800003BC02F09EFE0000074880470748004776
:10019000FEE7FEE7FEE7FEE7FEE7FEE70448054967
:1001A000054A064B70470000CD250008C100000835
:1001B0008803002088090020880500208805002089
:1001C0007047FEB5054610460C46184373D0AE4640
:1001D0008C460020AD1A01469C4167D36646002735
:1001E00001243D46B61A9D4102D313463A462124C6
:1001F000654676462F04360C3E432D0CB61A9D41BB
:1002000004D3150C1B042B431204103465467646A8
:100210002F06360A3E432D0AB61A9D4104D3150E09
:100220001B022B4312020834654676462F07360917
:100230003E432D09B61A9D4104D3150F1B012B43D4
:100240001201241D65467646AF07B6083E43AD0849
:10025000B61A9D4104D3950F9B002B439200A41C1A
:1002600065467646EF0776083E436D08B61A9D410F
:100270001AD392185B41641C16E000187646654656
:100280004941B71A9D410191009009D36046B11AC6
:1002900098418E468446009801990025401C69418A
:1002A000DD0752082A435B08641EE6D572466346A2
:1002B00003B0F0BDFFE700200146C046C0462A4615
:1002C0002346F5E70FB4054910B503AA029800F0DC
:1002D00095FA10BC08BC04B01847000000000020CC
:1002E00070B5044685690068C10601D5302600E076
:1002F0002026C00707D070BD62683046A1689047CD
:10030000206A401C20626D1EF6D570BD70B5044693
:1003100085690078C00707D170BD6268A168202098
:100320009047206A401C20626D1EF6D570BD70B5E6
:100330000C460546012A05D02878800600D5EA69D2
:10034000002302E0012305E05B1C934202D2E05C43
:100350000028F9D1A869E618C01AA861286AC0184F
:1003600028622846FFF7BCFF04E06A682078A96885
:10037000641C9047B442F8D32846FFF7C7FF70BD0E
:10038000F7B5002575291068009914A611D0C0464C
:10039000C046002802DA404211A608E00099096828
:1003A0008A0701D50FA602E0490704D50EA601254C
:1003B00001E0C046C046009F0024243704E000F05E
:1003C00031FA30313955641C0028F8D12B463246B9
:1003D0002146009800F0A3F9FEBD000000000000D7
:1003E0002D0000002B0000002000000070B5044626
:1003F0000D4621461068C046C0462188090502D531
:100400000F4A7A4402E00E4A7A440E322346002113
:10041000243305E006070009360F965D5E54491C3B
:100420000028F7D120780023000705D5702D03D0D0
:10043000002901D002231132204600F070F970BD6E
:10044000632F0000F3B50446002081B020622046EF
:10045000E168884700287DD0252802D06268A1681D
:1004600083E0454F00257F442046E16888472028E7
:10047000064608DB312E06D2B8192038007800284D
:1004800001D00543F0E7A80701D5042085430020EB
:10049000E0610746A0612A2E0AD0304602F00AFD2C
:1004A000002827D0B8000019303E0090866119E07E
:1004B0000298BA00121902C8916102902046E168C0
:1004C0008847012F064617D1E06900281FDA20204F
:1004D00085431CE000980A218069484300998019EF
:1004E000303888612046E1688847064602F0E2FC21
:1004F0000028EFD1012F0AD02E2E08D12046E16826
:1005000088470646202005437F1C022FC3DBA069D5
:10051000002803DA4042A06101200543E80701D02A
:1005200010208543002E24D030464138192803D8A6
:100530000120C00205432036204625603146029A3C
:100540001546FFF7FBFD00280CD0012807D0ED1D54
:10055000E80800E00DE0C0000830029077E72D1DAC
:10056000029574E762683046A1689047206A401C93
:100570006CE7206AFEBD0000272F000001E004C0E8
:10058000091F0429FBD28B0701D50280801CC907F3
:1005900000D00270704700290BD0C30702D0027050
:1005A000401C491E022904D3830702D50280801C07
:1005B000891EE3E70022EEE70022DFE700220309BD
:1005C0008B422CD3030A8B4211D300239C464EE06E
:1005D00003460B433CD4002243088B4231D303092A
:1005E0008B421CD3030A8B4201D394463FE0C309DC
:1005F0008B4201D3CB01C01A524183098B4201D3F4
:100600008B01C01A524143098B4201D34B01C01ADE
:10061000524103098B4201D30B01C01A5241C30856
:100620008B4201D3CB00C01A524183088B4201D3C5
:100630008B00C01A524143088B4201D34B00C01AB1
:100640005241411A00D201465241104670475DE0C6
:10065000CA0F00D04942031000D340425340002249
:100660009C4603098B422DD3030A8B4212D3FC22F2
:10067000890112BA030A8B420CD3890192118B4271
:1006800008D3890192118B4204D389013AD0921187
:1006900000E08909C3098B4201D3CB01C01A524142
:1006A00083098B4201D38B01C01A524143098B420B
:1006B00001D34B01C01A524103098B4201D30B01F4
:1006C000C01A5241C3088B4201D3CB00C01A524119
:1006D00083088B4201D38B00C01A5241D9D2430800
:1006E0008B4201D34B00C01A5241411A00D201463D
:1006F000634652415B10104601D34042002B00D5A7
:100700004942704763465B1000D3404201B5002068
:10071000C046C04602BD7047704770477047FFB57E
:1007200004460D4681B0243000902168880604D527
:100730001022E0699143216000E00120A84201DD20
:10074000471B00E000270498A1697A191018081ABD
:10075000A0612078C00602D42046FFF7C1FD002624
:1007600008E003986268A168805D9047206A401C99
:10077000761C206204988642F3DB2078C0060AD5F6
:100780002046FFF7ADFD06E06268A1683020904783
:10079000206A401C206238467F1E0028F4DC07E0F7
:1007A00000986268A168405D9047206A401C206202
:1007B00028466D1E0028F3DC2046FFF7A7FD2078B1
:1007C000000602D5022005B0F0BD0120FBE710B500
:1007D0004369002B02D0C046C04601E0FFF7A7FDE9
:1007E000012010BD1278014624310A7000224A709F
:1007F0000122ECE711680022D243E8E7084B70B50C
:100800000D467B4400F027F80446284600F036F8F1
:10081000002802D00020C04370BD204670BD0000FB
:10082000DB27000001468008081A02091018020A96
:100830001018020C1018C008820012185200891AF1
:1008400001E0401C0A390A29FBD2704701694A1CA1
:1008500002610878704700B58FB0029100210591C0
:100860000549019379440391114604906846FFF7C6
:10087000E9FD0FB000BD0000E5FFFFFFC06880216B
:1008800008407047754600F025F8AE4605006946F9
:100890005346C008C000854618B020B5FFF77EFC5F
:1008A00060BC00274908B6460026C0C5C0C5C0C503
:1008B000C0C5C0C5C0C5C0C5C0C5403D49008D4606
:1008C000704710B50446C046C0462046FFF755FCA9
:1008D00010BD0000004870472803002010B50348F1
:1008E00000F052F8024800F04FF810BDF00100206F
:1008F0003802002072B6FEE730B5014620314A7951
:100900000023022A04D00422C2630B71012030BDEF
:10091000026814680E25AC43146002681468640809
:1009200064001460446C1C22144001221546006CC3
:10093000A54045604A7118460B7130BD70B5002462
:10094000014620314A79022A03D00421C1630124DF
:1009500018E0026813680E25AB4313600268136841
:100960005B085B001360436C1C2213400122154698
:100970009D40036C5D604A7100220A71816B002901
:1009800000D08847204670BDF0B4016C0D68016846
:100990000C68466C1C2304221E401746B7402F42A9
:1009A0000ED067070CD50C68A40602D40C689443DB
:1009B0000C60416C19408A40016C4A60016B1AE07E
:1009C0000227B74002462F402032002F17D0A7073A
:1009D00015D50C68A40605D40C680A25AC430C6038
:1009E00001215171446C02211C40036CA1405960EB
:1009F00000211171C16A002918D0F0BC08470827EE
:100A0000B7402F4212D0240710D50C680E25AC43F6
:100A10000C60446C01211C400B46A340046C6360D5
:100A2000C163517100211171416BE4E7F0BC704763
:100A300070B504003CD01F48256814212818FFF722
:100A4000BDFD800060641C482064022120462030E7
:100A50000246417129681948E3680140A068666947
:100A60001843236933431843A3691843E3691843C0
:100A7000236A1843084328600121A068890388423B
:100A800010D00D488030836A656C1C210D400F2604
:100A9000AE40B3438362656C63680D40816AAB40CE
:100AA0000B4383620020E06301215171107170BD1E
:100AB000012070BDF8FFFDBF000002400F80FFFF66
:100AC00070B5044600F0F2F80546601C02D00448F8
:100AD0000078241800F0EAF8401BA042FAD370BD59
:100AE00004000020F8B5002303240125C2E03246AB
:100AF0002E469E40B446324079D00E79B607B60FE6
:100B0000012E01D0022E17D186682746B6465E0018
:100B1000B74000967646BE43B646CF68009EB740C3
:100B200076463743876046686746BE430F79FF06BF
:100B3000FF0F9F40374347600E79F643B6070ED04C
:100B4000C6682746B4465E00B646B7406646BE4312
:100B5000B4468F687646B74066463743C7600E791D
:100B6000B607B60F022E14D1DE08B600361800966E
:100B7000366A5F07B446FE0E0F27B646B740664694
:100B8000BE43B4460F697646B74066463743009E7B
:100B9000376206682746B4465E00B646B7406646EA
:100BA000BE430F79B446BF07BF0F7646B7406646CF
:100BB000374307604E68B603B60F5AD0304F7E6B8E
:100BC0002E437E639F082F4EBF00BE190096B66865
:100BD0000F27B4469E07360FB646B7406646BE435B
:100BE00005273F07B446B84202D100271AE040E08B
:100BF000254FB84201D1012714E0244FB84201D15A
:100C000002270FE0224FB84201D103270AE0214F0B
:100C1000B84201D1042705E01F4FB84201D1052792
:100C200000E006277646B74066463743009EB76029
:100C30001A4E36684F689643FF0300D51643174F88
:100C40003E607E684F689643BF0300D51643134F3E
:100C50007E60BE684F689643FF0200D516430F4F73
:100C6000BE60FE684F689643BF0200D516430B4A2C
:100C7000D6605B1C0A681646DA4000D037E7F8BD3C
:100C80000010024000000140000400500008005025
:100C9000000C005000100050001C005000040140E7
:100CA000002A01D0816170478162704701488068E5
:100CB000704700000400002070B5024640325378AF
:100CC000202B1CD11378012B19D00123137024245D
:100CD0005470046825689D432560046825681E03D8
:100CE000B5432560046825680D43256000680168E8
:100CF00019430160202050700020107070BD022048
:100D000070BD70B5024640325378202B1BD113784A
:100D1000012B18D0012414702423537003681D681C
:100D2000A5431D6005682B680F263602B3430902F0
:100D30001943296000680168214301602020507038
:100D40000020107070BD022070BD000070B504005E
:100D500006D02546403568780026002802D005E0F8
:100D6000012070BD2E70204600F04AF824206870E3
:100D7000206801684908490001600F216068090680
:100D800088432168086121688A680120C003824382
:100D90008A60E1680129A16808D0212292021143EA
:100DA00022689160E168022902D005E00143F7E77B
:100DB00001212268C902516021684A680F4B1A4319
:100DC0004A602168CA688243CA6061692069084331
:100DD000A169090208432168C860216AE0690843E3
:100DE000216808602068016801221143016066647F
:100DF000202068702663AE70002070BD0080000265
:100E000010B586B0044614216846FFF7D5FB11499A
:100E1000206888421BD1104CE16A02200143E16244
:100E2000E16A014003200591000200901220019028
:100E30000120029003200390042004906946074893
:100E4000FFF750FEA06B012149050843A06306B0DF
:100E500010BD00000054004000100240000400508B
:100E60000248816802788918816070470400002078
:100E700010B5084800240168402211430160204653
:100E800000F00AF8002801D0012401E000F026F863
:100E9000204610BD0020024070B504460D4D7D2057
:100EA0002978C000FFF78AFB01460B480068FFF76E
:100EB00085FB00F0B7FC002809D1042C07D20022E2
:100EC0002146401E00F022F800206C6070BD012019
:100ED00070BD000004000020100000200448416B99
:100EE000012211434163816B020411438163704706
:100EF00000100240002805DBC106C90E0120884011
:100F0000014908607047000000E100E010B501F001
:100F1000AFFF10BDF8B5044600780027584D800695
:100F200071D5574E403EB06BC00004D4B06BA905DC
:100F30000843B063012753480168C90511D401680B
:100F4000821511430160FFF7B1FE009005E0FFF745
:100F5000ADFE0099401A642837D84A480068C00599
:100F6000F5D532680321090560680A4001409142C5
:100F700008D08103890F032904D13168890301D581
:100F80000120F8BD2A69032109040A4022D0084043
:100F900090421FD0207880061CD528692A69884392
:100FA0000121C9040A432A612A698A432A61286106
:100FB000C0050FD5FFF77AFE009008E0FFF776FE38
:100FC0000099411A3048814201D90320F8BD2869AF
:100FD0008005F3D561688803800F032805D1326846
:100FE0000005824301400A43326028690322616898
:100FF0001204114008432861002F04D0B16B012076
:1010000000078143B1632078C00705D0E868A16874
:10101000800880000843E8602078800705D5E868EC
:101020000C218843E1680843E8602078400706D532
:10103000E86803218902884321690843E860207831
:10104000000706D5E868032109038843616908435E
:10105000E8602088C00506D5E868032109048843B4
:10106000A1690843E8602078000606D5E8680321F6
:1010700089048843E1690843E8600020F8BD000066
:10108000401002400070004088130000F8B50E4682
:10109000050038D05E480068C007C00FB04214D2C7
:1010A0005B4C20684008400030432060FFF7FEFDA5
:1010B000074605E0FFF7FAFDC11B564881427AD882
:1010C0002068C007C00FB042F4D12878524C800786
:1010D00005D5E068F0218843A9680843E0602878D6
:1010E000C00752D06868022806D0032807D02168BC
:1010F00001280AD0890504E02168890301E02168FC
:101100008901002903DB0120F8BD4907F9E7E168FF
:10111000890889000143E160FFF7C8FD0746686858
:1011200002280AD0032814D001281ED029E0FFF796
:10113000BDFDC11B374881423DD8E0680007800FE4
:101140000228F4D121E0FFF7B1FDC11B31488142F3
:1011500031D8E0680007800F0328F4D115E0FFF7CD
:10116000A5FDC11B2B48814225D8E0680007800FF0
:101170000128F4D109E0FFF799FDC11B2548814200
:1011800019D8E0680007800FF5D121480168C90728
:10119000C90FB14217D901684908490031430160BC
:1011A000FFF784FD074608E005E0FFF77FFDC11B60
:1011B0001848814201D90320F8BD15480068C007CE
:1011C000C00FB042F1D12878400706D5E06807216A
:1011D00009028843E9680843E0602878000707D5DA
:1011E000E0680721C90288432969C9000843E06013
:1011F00000F03AF8E168094A0906090F515CC84055
:101200000749086007480068FFF746FEF8BD000080
:1012100000200240881300000010024048330008FC
:101220001000002008000020044805490068C96833
:10123000044A4905490F515CC8407047100000201E
:101240000010024061330008044805490068C9687D
:10125000044A8904490F515CC840704710000020BF
:10126000001002406133000870B51A4AD3681A4969
:101270000C2018408D0004280CD04E00082810D0F7
:101280000C2810D050680004410F0120C003491CF5
:10129000884070BD1068C00601D5084670BD28465C
:1012A00070BD304670BD98020C4C000F205C1B02D4
:1012B0009C0FD368641CDB0301D5314603E0126840
:1012C000D20600D4294601F0ADFD22460023FEF7E8
:1012D00078FF70BD0010024000093D00583300083F
:1012E000FEB505007ED0F74CE7680C20E6680740A5
:1012F0000120000406402878C00747D0082F05D0F9
:101300000C2F0AD101200004864206D120688003F8
:101310003CD568680028E5D038E001206968000401
:10132000814203D121680143216011E0052301229C
:101330001B0492049942216802D111432160F1E714
:101340008143216021680140009120689043206022
:10135000686800280DD0FFF7A9FC009005E0FFF7B2
:10136000A5FC0099401A64287ED820688003F6D531
:101370000CE0FFF79BFC009005E0FFF797FC00995D
:10138000401A6428F0D820688003F6D428788007B3
:101390005DD5E868810604D5226820210A432260D1
:1013A00088430923042F0DD00C2F01D1002E09D022
:1013B00000283CD02168994301432160FFF776FC67
:1013C000064628E02168490701D500288AD06168CF
:1013D0001F22120291432A6912021143616021689F
:1013E000994300E091E101432160FFF73DFFE1688F
:1013F00009060A0FB449895CC840B4490860B4487A
:101400000068FFF749FD002874D120E0FFF74EFC8B
:10141000801B0228A8D820684007F7D560681F21E4
:101420000902884329690902084360600FE02068C7
:10143000400840002060FFF739FC064604E0FFF753
:1014400035FC801B02288FD820684007F7D4287805
:10145000C00661D5002F0DD0A86900284BD02068A8
:10146000FF210131084300E0C6E02060FFF71EFCC9
:1014700006462DE02068800502D5A8690028A5D081
:101480006068072149038843296A084360606068EF
:10149000297F0002000A090608436060286A410BA0
:1014A0000120C003491C8840E16809060A0F8649EB
:1014B000895CC8408549086085480068FFF7ECFCF6
:1014C000002817D128E0FFF7F1FB801B0228A1D8E4
:1014D00020688005F7D56068072149038843296A99
:1014E000084360606068297F0002000A090608431B
:1014F000606011E0E1E02168FF200130814321605C
:10150000FFF7D4FB064604E0FFF7D0FB801B022860
:1015100072D820688005F7D428786E4E000724D54D
:1015200068690028306910D0012108433061FFF755
:10153000BDFB009005E0FFF7B9FB0099401A0228B7
:101540005AD830698007F6D50FE040084000306176
:10155000FFF7ACFB009005E0FFF7A8FB0099401AED
:10156000022849D830698007F6D42878400765D525
:1015700000200290A06BC00006D4A06B01210907D7
:101580000843A0630120029053480168C90511D4A3
:101590000168821511430160FFF788FB009005E0A8
:1015A000FFF784FB0099401A642825D84A48006850
:1015B000C005F5D5FF20AA680130824203D1316908
:1015C0000143316111E001218902002A07D005237E
:1015D0001B029A4203D132690A433261EFE7326952
:1015E00082433261306988433061A86800280FD097
:1015F000FFF75CFB009007E05EE0FFF757FB009908
:10160000411A3648814257D830698005F5D50DE03A
:10161000FFF74CFB009006E0FFF748FB0099411AEA
:101620002E48814248D830698005F5D402980028B8
:1016300004D0A06B012109078843A063686A0028D1
:1016400065D00C2F4CD0012636060228206805D024
:10165000B0432060FFF72AFB05462FE0B04320602F
:10166000FFF724FB074604E0FFF720FBC01B02281E
:1016700022D820688001F7D4E96AA86AE2680843A2
:10168000296BFD231B049A4311430843E060206843
:1016900030432060FFF70AFB054604E0FFF706FB36
:1016A000401B022808D820688001F7D52FE0FFF7FB
:1016B000FDFA401B022801D90320FEBD20688001ED
:1016C000F5D424E000100240483300081000002048
:1016D0000800002040100240007000408813000005
:1016E0000128EAD0E06801210904AA6A0140914278
:1016F0000BD10F218904EA6A0140914205D10321EF
:1017000089050840296B884201D00120FEBD0020D8
:10171000FEBDF8B504000ED0FF27606A053700252E
:1017200000280AD02561656126464036A562707C96
:10173000002807D00AE00120F8BD6068B842F3D065
:10174000E561F1E73574204600F03EF8022171743E
:101750002068026840239A4302602123A2686068DF
:101760009B021A4038401043E3688A021340184332
:1017700023690B40217D1843C907C90F0843A1699C
:10178000931019400843E169382319400843216A3E
:10179000802319400843A16A930019400843216837
:1017A0000860A0690421000C0840616A10231940F8
:1017B0000843216848602068C1699143C16165653B
:1017C000012070740020F8BD10B586B004461421C5
:1017D0006846FEF7F1FE10492068884219D10F488B
:1017E000816B0122920311438163C26A02210A4381
:1017F000C262C06A0191084005900F20000300906A
:101800000021032002910491039069460448FFF7E8
:1018100069F906B010BD0000003800400010024019
:1018200000040050094910B5401E884201D901202A
:1018300010BD074C60610321081F01F019FB002057
:10184000A06107202061002010BD0000FFFFFF0005
:1018500000E000E0F0B502462032137E012B21D0DB
:10186000012515760223537606687468B3687027DD
:10187000BC430F68274377600068AC07A04208D0DC
:10188000094CA04205D0094CA04202D0084CA0420D
:1018900004D180244968A343194381605576002010
:1018A0001076F0BD0220F0BD0004004000080140A9
:1018B0000014014070B5050005D02C462034607E30
:1018C000002802D006E0012070BD002020762846C6
:1018D00000F010F802206076291D286800F080FED4
:1018E0000120A077A076E0762077607760760020F0
:1018F00070BD000010B500680121890788420CD135
:101900000648816B012211438163002211460F209A
:10191000FFF7FCFA0F20FFF7EDFA10BD00100240B0
:10192000F8B5054604462035287E0026012817D044
:101930000120287602206876226890687727FF23A6
:10194000B8431B02984390600868502838D00EDCDA
:1019500020284FD006DC00284CD010281ED149E0AA
:101960000220F8BD302845D0402817D13AE0602841
:101970002ED0702819D001221203801A0FD0904265
:101980000CD1CB684A688968206800F05DFE206849
:101990008168012292031143816000E00126012049
:1019A0006876002028763046F8BDCB684A6889689A
:1019B000206800F049FE2168886838438860EEE7B7
:1019C000CA684968206800F0B9FE5021206806E026
:1019D000CA684968206800F0C2FE6021206800F0F3
:1019E0003EFEDCE7CA684968206800F0A7FE402197
:1019F0002068F4E7226801461046F0E7704770B5AA
:101A00000446006801690025C9438907002915DBE0
:101A1000C168C943890711D4E91E016101202076FC
:101A2000206880698007204602D0FFF7E7FF04E0C6
:101A300000F09EF8204600F024F925762068016920
:101A4000C943490717D4C168C943490713D40421BE
:101A5000C943016102202076206880698005800FDB
:101A6000204602D0FFF7CAFF04E000F081F82046CC
:101A700000F007F9257620680169C943090716D4E3
:101A8000C168C943090712D40821C9430161042070
:101A900020762068C0698007204602D0FFF7AEFF9D
:101AA00004E000F065F8204600F0EBF825762068A9
:101AB0000169C943C90617D4C168C943C90613D40B
:101AC0001021C9430161082020762068C069800583
:101AD000800F204602D0FFF791FF04E000F048F8A5
:101AE000204600F0CEF8257620680169C943C90771
:101AF00008D1C168C943C90704D1891E01612046C4
:101B000000F0C0F820680169C943490609D4C168DA
:101B1000C943490605D44021C9430161204600F06C
:101B2000B2F870BD10B586B0044614216846FEF7C1
:101B300043FD012120688907884214D10B48C16AFE
:101B400001221143C162C06A0221104005900720A2
:101B500000900020029003900191049105206946B5
:101B60000007FEF7BFFF06B010BD000000100240E6
:101B70007047F8B5064604462036307E00270D46ED
:101B800001280ED001203076002A0CD0042A1BD068
:101B9000082A2FD00C2A3ED0012700203076384664
:101BA000F8BD0220F8BD206800F061FD2068816961
:101BB0000822114381612068826904218A4382617D
:101BC00020688169EA6812E0206800F068FD2068FA
:101BD00082690121C9020A43826120688169012268
:101BE00092029143816120688169EA68120211437F
:101BF0008161D2E7206800F06BFD2068C16908228E
:101C00001143C1612068C26904218A43C26120680E
:101C1000C169EA6812E0206800F075FD2068C169BA
:101C20000122D2021143C1612068C26901218902E7
:101C30008A43C2612068C169EA6812021143C16126
:101C4000ABE770B5050005D02C462034607E002837
:101C500002D006E0012070BD00202076284600F06A
:101C60000FF802206076291D286800F0B9FC0120D9
:101C7000A077A076E076207760776076002070BD50
:101C80007047704770477047704770477047000053
:101C9000F8B502680446D06911689668A24B0546FB
:101CA0001D402023002D75D0F707A04DFF0FBC4627
:101CB0000D402F436DD02546C7078035002F06D035
:101CC000CF0504D5012717622A683A432A608207A4
:101CD00008D5F20706D0276802223A622A6804274C
:101CE0003A432A60420708D5F20706D02668042244
:101CF00032622A68022632432A6002070AD50A465F
:101D00001A406646324305D02668082232622E68A1
:101D100016432E60020508D54A0106D50122266821
:101D2000D20232622A681A432A602A68002A39D00D
:101D3000800606D5880604D5616E002901D02046AC
:101D40008847286821688968490602D42821084202
:101D50002DD0204600F0B8FD21688868400622D5C5
:101D6000EFF31080012282F310888B6840229343A6
:101D70008B6080F31088206F002814D06C49816339
:101D8000206FFEF7DBFD00280CD0206F816B08E090
:101D900000E012E0850610D58D060ED5616EA9E033
:101DA00020468847F8BD2046FFF770FFF8BD204663
:101DB000FFF76CFF00202860F8BD256E012D7CD157
:101DC000C5067AD5CD0678D51026166222689068A9
:101DD000254640064035002846DA216F08684068ED
:101DE0000004000CE8D02F8B8742E5D9688308688F
:101DF0000068800633D4EFF31080012181F310884E
:101E000011683701B943116080F31088EFF3108037
:101E1000012181F3108821688A68520852008A6083
:101E200080F31088EFF31080012181F3108821687E
:101E30008A684027BA438A6080F31088E3670020ED
:101E40002066EFF31080012181F3108821680A6871
:101E5000B2430A6080F31088206FFEF74DFD288B97
:101E6000698B401A81B231E0288B698B401A81B2AC
:101E7000688B0028A0D000299ED0EFF310800125A8
:101E800085F310881568FF272137BD43156080F35F
:101E90001088EFF31080012282F310882268956881
:101EA0006D086D00956080F31088E3670020206660
:101EB0006066EFF31080012200E00BE082F31088EF
:101EC00022681368B343136080F310882046FFF73D
:101ED000DBFEF8BDC50208D5750206D50120000558
:101EE00010622046FFF7D1FEF8BD050606D50D06A7
:101EF00004D5A16E002900D052E7F8BD4006FCD5FC
:101F00004806FAD52046EFF31081012484F31088A7
:101F100014684025AC43146081F310888367002166
:101F2000816600F0A4F9F8BD0F080000200100044C
:101F3000B528000810B5040003D0A06F002802D017
:101F400007E0012010BD002174200155204600F05B
:101F500027F82420A067206801684908490001602B
:101F6000204600F089FD0128ECD0606A002802D0EC
:101F7000204600F007FC206841680922D202914304
:101F80004160206881682A2291438160206801684D
:101F9000012211430160204600F05AFC10BD0000F0
:101FA000F0B587B0064614216846FEF705FB4A4F98
:101FB00035684A490220032204230024BD421AD175
:101FC0008D6B460435438D63CD6A0543CD62C96A86
:101FD00001900140059191020091029404930392B3
:101FE00069463F48FEF77EFD002211461D20FEF7A0
:101FF0008DFF1D206CE03B4FBD4219D14D6B01267A
:10200000B60335434D63CD6A01263543CD62C96AB7
:10201000019031400591032149020091052002946D
:102020000493039269460007FEF75CFD07B0F0BD1C
:102030002D4FBD42FAD18D6B0127FF043D438D63C7
:10204000CD6A1D43CD62C96A0190194005910321F3
:102050008902062000910490029403926946234865
:10206000FEF740FD234D2248AC600C27EC6081C593
:10207000EC6080202C61A8602020AC6168611D4864
:10208000083DFEF7D5FC002801D0FEF733FC35678C
:10209000AE621748174D1430483581C510206C606A
:1020A0002860EC602C616C618020AC61A8602846DF
:1020B0000838083DFEF7BCFC002801D0FEF71AFCEA
:1020C000F566002211460E20AE62FEF71FFF0E20BD
:1020D000FEF710FFAAE70000004800400010024091
:1020E0000004005000380140004C0040000800503F
:1020F0001C000240F001002070B5C36F202B2ED1D0
:1021000000290BD0002A09D0012483682403A342AC
:1021100006D10369002B03D1CB0701D0012070BD8C
:10212000034660331C7D012C19D001241C7500234B
:1021300003660C4B04689C420ED063681B020BD5EF
:10214000EFF31083012585F3108825680126B60674
:102150003543256083F3108800F098FD70BD0220A0
:1021600070BD00000048004010B500680749884273
:102170000BD10749074B08784A781A54401C08705D
:102180000122491C0448FFF7B7FF10BD004800407A
:10219000140000201803002064000020FFB504464E
:1021A000806F83B017460D4620285ED1002D0AD0DF
:1021B000002F08D0A168C001814207D12069002802
:1021C00004D1E80702D0012007B0F0BD20466030FE
:1021D0000090007D012848D0009801210175002061
:1021E000802108512120A067FEF760FD2646403679
:1021F0000190378277820120A1680003814202D1D9
:102200002069002805D02F46002500990020087578
:1022100011E00027F9E700228021204600F090FD20
:10222000002815D1002F15D02168387888627F1CCE
:10223000708A401E7082708A019B00280698009068
:10224000E9D100224021204600F07AFD002808D084
:102250000320B9E728882168C005C00D8862AD1C3D
:10226000E6E72020A0670020AEE70220ACE7704739
:10227000FEE7000010B50248FFF70AFD10BD0000A0
:102280006400002008B50848016B01221143016376
:10229000006B10400022009011460A20FEF736FE27
:1022A0000A20FEF727FE08BD00100240F0B587B0F7
:1022B00014216846FEF780F91748C26A04210A43D0
:1022C000C262C26A0A400592C16A01242143C16206
:1022D000C16A21400591C16A02252943C162C06AD1
:1022E0000F4F2840059022460C493846FEF7D8FC8F
:1022F00060030026694651C1694638460396FEF7D9
:10230000F1FB0F206A46039551C269463846FEF735
:10231000E9FB07B0F0BD0000001002400F200000F4
:102320000008005010B5134811490160124941607E
:10233000002181600161416181610122C161C2604E
:102340000162FEF703FD002801D0FEF7D3FA002159
:102350000848FEF7B1FC002801D0FEF7CBFA0021B7
:102360000448FEF7CEFC002801D0FEF7C3FA10BDEA
:102370000054004018000020BB7C700010B50C48D1
:102380000A490160E1214902416000218160C16088
:10239000016181610C22016242614162FFF7CAFD65
:1023A000002801D0FEF7A6FA10BD0000004800404A
:1023B0006400002010B50E480C490160FF21053172
:1023C000416000218160C16001614161C161012200
:1023D000016292044162826181620721C162FFF75A
:1023E00098F9002801D0FEF785FA10BD00380040AA
:1023F0008002002010B58AB000240494059406944D
:102400000794089401212A480994009401940294A5
:102410008907039412C0046084602649C460416047
:102420000838FFF747FA002801D0FEF763FA0120C9
:102430000003049004A91E48FFF772FA002801D097
:10244000FEF758FA1A48FFF7FCFB002801D0FEF708
:1024500051FA089408A916480994FFF7FBF90028D7
:1024600001D0FEF747FA6020009001940294002208
:10247000694603940E48FFF77CFB002801D0FEF765
:1024800039FA042269460A48FFF773FB002801D095
:10249000FEF730FA082269460548FFF76AFB002874
:1024A00001D0FEF727FA0248FFF73CFB0AB010BD47
:1024B000D8020020FFFF000010B50C480A49016057
:1024C000E1214902416000218160C16001618161B7
:1024D000C1610C22016242614162FFF72BFD0028BD
:1024E00001D0FEF707FA10BD00380140E8000020D7
:1024F00010B50C480A490160E12149024160002100
:102500008160C16001618161C1610C22016242612F
:102510004162FFF70FFD002801D0FEF7EBF910BD77
:10252000004C00406C010020FEE77047704710B57A
:10253000FEF796FC10BD000010B59AB03421684635
:10254000FEF73AF8142115A8FEF736F820210DA859
:10255000FEF732F81C4801680322D2029143C214EC
:10256000891801600121022003911021009004913B
:10257000099040040B90000100240C900A946846D6
:10258000FEF7AEFE002801D072B6FEE70F201590D0
:1025900003201690179418940121199415A8FEF79A
:1025A00075FD002801D072B6FEE70D2012940D9043
:1025B0000F9411940DA8FEF7ADFC002801D072B65F
:1025C000FEE71AB010BD0000007000407047000028
:1025D00010B50248FFF713FA10BD0000D802002022
:1025E000F0B502680124A407144D154E154FA04202
:1025F00005D0A84203D0B04201D0B84204D113465E
:10260000702293434A681A43A04205D0A84203D0DF
:10261000B04201D0B84204D103231B029A43CB68D5
:102620001A4380239A430B691A4302608A68C26284
:102630000968816201214161F0BD00000004004091
:10264000000801400014014030B58468FF252D02C8
:102650001B021343AC430B432343836030BD8268AA
:1026600070239A430A4307210A438260704730B5BA
:10267000026A520852000262026A45688369702445
:10268000A3439C080B68A40023430224A2438C6844
:1026900045601443836149684163046230BD30B5CD
:1026A000026A10239A430262036A456882697324AE
:1026B0002402A2430C6824021443202293438A6814
:1026C000456012011A43846149688163026230BD2A
:1026D00030B5026AFF2301339A430262026A4568F9
:1026E000C3697024A3439C080B68A40023430124FE
:1026F0006402A2438C68456024021443C3614968A4
:10270000C163046230BD30B5026A01231B039A43E2
:102710000262036A4568C26973242402A2430C68FA
:10272000240214430122520393438A684560120332
:102730001A43C46149680164026230BD30B5036A5E
:10274000046A6408640004628469F025AC431201E1
:1027500022430A24A3430B438261036230BD30B598
:10276000036A1024A34303628469036A0F252D03BF
:102770001203AC432243A024A343090119438261FD
:10278000016230BD10B5818CC90707D001684A6865
:1027900001235B049A43836A1A434A60818C890748
:1027A00007D501684A6801231B049A43C36A1A4388
:1027B0004A60818C490707D501684A6801239B0458
:1027C0009A43036B1A434A60818C090707D5016855
:1027D0004A680123DB039A43436B1A434A60818CA6
:1027E000C90607D50268916801231B039943836BCF
:1027F00019439160818C890607D501688A68012395
:102800005B039A43C36B1A438A60818C490612D5D5
:1028100003685A6801210905046C8A4322435A60FF
:10282000026C8A4207D10268516803235B05994311
:10283000436C19435160818C090607D501684A68C9
:102840000123DB04806C9A4302434A6010BD000000
:10285000F8B50446002680300660FEF727FA0546E4
:1028600020680068124F000709D501212B4600227D
:1028700049052046009700F063FA00280DD1206832
:10288000006840070BD501212B4600228905204610
:10289000009700F055FA002801D00320F8BD202051
:1028A000A067E0672666603426750020F8BD00004A
:1028B000FFFFFF0110B5806A0022014640314A83C4
:1028C0004A82FFF7E3F910BD10B5EFF31081012242
:1028D00082F3108802681368FF242134A343136035
:1028E00081F31088EFF31081012282F310880268CF
:1028F00093685B085B00936081F31088016E012987
:102900000BD1EFF31081012282F310880268136863
:102910001024A343136081F310882021C167002194
:102920000166416610BD70B5014640318B8BC46FA6
:102930000268222C04D0906908210843906170BD80
:10294000526A446D1A402280426D921C42654A8B45
:10295000521E4A834A8B002AF1D1EFF310820123E1
:1029600083F3108803681C68FF252135AC431C6085
:1029700082F31088EFF31082012383F31088036839
:102980009C68640864009C6082F310882022C267FF
:1029900000224266036E012B02D0FFF7E5FB70BDFB
:1029A0000266EFF31082012383F310880468256820
:1029B00010239D43256082F310880268D469E443A4
:1029C000E40600D41362098BFFF75EF970BD70B5A1
:1029D000014640318B8BC46F0268222C04D0906971
:1029E00008210843906170BD526A1A40436D1A7005
:1029F000426D521C42654A8B521E4A834A8B002A02
:102A0000F1D1EFF31082012383F3108803681C686F
:102A1000FF252135AC431C6082F31088EFF3108250
:102A2000012383F3108803689C68640864009C6039
:102A300082F310882022C26700224266036E012BB7
:102A400002D0FFF791FB70BD0266EFF31082012305
:102A500083F310880468256810239D43256082F362
:102A600010880268D469E443E40600D41362098B39
:102A7000FFF70AF970BD0000F8B5044601688068E8
:102A80002269E66910436269002532431043754BA1
:102A90000A68754E324002430A602068416803228A
:102AA00012039143E268114341602168A069994291
:102AB00001D0226A10438A680B263602B2430243D1
:102AC0008A606A4922686A488A420CD1C0688007D5
:102AD000800F06D001283FD002283BD0032827D101
:102AE00024E0012725E063498A420AD1C0680C210D
:102AF00008402DD004282FD008282BD00C2817D11F
:102B000014E05D498A4223D05C498A4220D09A422F
:102B10000ED1C16803208002014019D0012080023B
:102B2000091A19D0091A15D0814201D1082700E0ED
:102B300010274F495248403986009A4232D1002F1F
:102B40000CD0022F0DD0042F10D0082F7FD126E0FB
:102B50000027EEE70227ECE70427EAE7FEF764FB2D
:102B600006E00968C90605D4304603E0FEF77CFBA1
:102B7000002872D0626851005118814267D8110351
:102B8000814264D3010E06025008002330185941D7
:102B9000FDF717FB03210902411A3A4A55E00120CB
:102BA000C003E7E70122E369D20393422BD13B0044
:102BB00000F050F90906090C4D114D4D4D274D00FF
:102BC000FEF732FB09E0FEF73FFB06E00968C906A5
:102BD00005D4304603E0FEF747FB00283DD061688E
:102BE00040004A088018FDF7E9FC80B202462649F9
:102BF000103A8A422BD8491C01400007400F084375
:102C000029E01046EBE73B0000F024F90906090C27
:102C10002112212121232100FEF706FB0AE0FEF705
:102C200013FB07E00968C90606D4304604E00EE04D
:102C3000FEF71AFB002810D061684A081018FDF74B
:102C4000BDFC80B20146104A1039914203D90125DA
:102C500003E01046F0E72168C86000206066A066C7
:102C60002846F8BD00480040F369FFEF00380140F6
:102C70004010024000440040004C00400050004022
:102C800000093D00FFFC0F00EFFF000070B541653B
:102C9000014640310A834A83002242660123846848
:102CA0001B03FF259C4204D10469002C13D1214C45
:102CB0000AE07F26002C09D001252D07AC420CD15B
:102CC0000469002C05D03F248C8307E00469002CA4
:102CD00001D08E8302E08D8300E08A8380210A5038
:102CE0002221C167EFF31081012484F31088046866
:102CF000A56801263543A56081F310888168994253
:102D000002D10169002912D00B49416674210A548D
:102D1000EFF31081012282F3108800680268FF231C
:102D200021331A43026081F31088002070BD0349EB
:102D3000EBE70000FF010000CF2900082729000869
:102D4000FFB581B005461746044660350A9E55E03A
:102D5000701C53D0FDF7AAFF0499401AB04230D836
:102D6000002E2ED020680168490747D5C069C043AE
:102D7000000543D401202168C0020862EFF31080EF
:102D8000012181F3108821680B68FF22A13293434F
:102D90000B6080F31088EFF31080012181F310881D
:102DA00021688A68520852008A6080F310882020C7
:102DB000A067E0678034206000202875032005B0FC
:102DC000F0BDEFF31080012181F3108821680B68BA
:102DD000FF22A13293430B6080F31088EFF3108041
:102DE000012181F3108821688A68520852008A60A4
:102DF00080F310882020A067E067DDE72068C169C4
:102E00000298884304D00020B842A1D00020D6E721
:102E10000120F9E710B50248FEF73AFF10BD0000A7
:102E20006C010020F8B5040C8BB2264682B25E43DA
:102E30000D0C1046370C5843360480190021794197
:102E400016466E43370C36048019794126466E4388
:102E50008919F8BD30B47446641E2578641CAB42F1
:102E600000D21D46635D5B00E31830BC18470000CC
:102E70008307FF22DB0E9A408907090E994000283C
:102E800008DB830809489B001B1818689043084317
:102E9000186070470007000F0838830804489B003B
:102EA0001B18D86990430843D861704700E400E0DC
:102EB00000ED00E030380A2801D2012070470020E0
:102EC000704770470022134601E08354521C8A4227
:102ED000FBDB7047FEB500240094012220212C4822
:102EE0000194FDF7DDFE0125684605700321417060
:102EF000448085800199009800F0D0F8002809DC12
:102F00001420FDF7DDFD0199009800F0C7F8641C5E
:102F1000052CF3DB1F4807791FA03946FDF7D2F9CE
:102F2000002F2FD000242BE010211A48FFF7CAFFF2
:102F300024490020087069460D700320487020461F
:102F4000642148433F2109014018694648808D802B
:102F50000199009800F0A2F80026002806DC0199EB
:102F6000009800F09BF8761C052EF6DB09490879DD
:102F700000F06CF90246097913A0FDF7A3F9641C6F
:102F8000BC42D1DB002220210148FDF789FEFEBDB5
:102F90000004005018030020596F75206E656564A9
:102FA00020746F2072656164202530326420726560
:102FB0006769737465727320746F74616C6C7921C6
:102FC0000D0A000014000020526567697374657271
:102FD0002025303264206973202573210D0A0000FA
:102FE00013B5044B012269460348FFF7D7F8009850
:102FF0001CBD0000FFFF0000E8000020FDF738FFC7
:10300000FFF79AFAFFF752F9FFF73CF9FFF7F2F9E9
:10301000FFF752FAFFF76CFAFFF784F9FFF7CAF9E6
:10302000FFF7ACF902A0FDF74DF9FFF753FFFEE7FC
:1030300048656C6C6F2C20546865726D6F6B6F6E99
:1030400021200D0A0D0A0000F0B50D460746114B70
:103050000024114E12E0385D00F0E6F80002434013
:103060000020190402D55900714000E05900401CAD
:10307000C0B28BB20828F4D3641CA4B2AC42EADB21
:10308000D8B200F0D1F80402180A00F0CDF8001907
:1030900080B2F0BDFFFF000005800000F3B583B0F3
:1030A0000020009069460190087B0870487B4870BA
:1030B000C889020A8A70C870088A020A0A714871AF
:1030C00006216846FFF7C0FF69468871000AC8718B
:1030D000384E012280213046FDF7E2FD0122042115
:1030E0003046FDF7DDFD0420FDF7EAFC32A0FDF7D8
:1030F000E9F800247D276D46FF0029193B4601228F
:103100003048FFF74BF8295D2FA0FDF7DBF8641C72
:10311000082CF2DB01222E492A48FEF7EDFF2DA0F4
:10312000FDF7D0F80420FDF7CBFC002280213046CB
:10313000FDF7B6FD002204213046FDF7B1FDFDF795
:10314000B5FD0446FDF7B2FD001B6428FAD322A0AA
:10315000FDF7B8F81E4E761E3078002826D00024E1
:10316000204D04E0295D20A0FDF7ACF8641C307808
:103170008442F7DB17A0FDF7A5F831781948891EBE
:10318000FFF762FF04461AA0FDF79CF83078281874
:103190002038C27F817F18A0FDF794F8220AE1B29F
:1031A0001BA0FDF78FF8307805B0F0BD0020C043BC
:1031B000FAE70000000400504D4F444255535F545D
:1031C000583A0000640000202025303258000000EA
:1031D000150000200D0A00004D4F444255535F5228
:1031E000583A2000180300202530327820000000D3
:1031F0004352433A0D0A000052656365697665647F
:103200003A307825303258253032580D0A00000007
:1032100045787065637465643A3078253032582596
:103220003032580D0A00000002090007000E024368
:103230009108332001400240900001434808552284
:1032400011401040490008437047000000B50300DA
:10325000FFF700FE0E22080A0C0E10121416181AA0
:103260001C1E20220DA000BD0FA000BD13A000BD9C
:1032700017A000BD19A000BD1BA000BD1BA000BD74
:103280001BA000BD1CA000BD1DA000BD1FA000BD57
:1032900021A000BD24A000BD28A000BD54656D7014
:1032A000657261747572650052656C6174697665EA
:1032B0002048756D69646974790000004162736F1C
:1032C0006C7574696F6E2048756D696469747900F6
:1032D000456E7468616C7079000000004465772069
:1032E000506F696E74000000434F3200564F430028
:1032F000434F325F564F4300466C6F77000000002B
:1033000050726573737572650000000042726967E0
:1033100068746E6573730000436F6E64656E7361ED
:1033200074696F6E00000000416D6269656E742003
:103330005072657373757265000000004E6F205304
:103340007570706F727400000000000000000000D3
:103350000102030406070809030406080C101820DC
:1033600030000000000102030430313233343536BE
:1033700037383941424344454640305800303132B5
:103380003334353637383961626364656640307886
:10339000000400000800000000000000020001001E
:1033A00000100000C43300080000002018000000D6
:1033B00004010008DC330008180000207009000038
:1033C00020010008000000000100000004000000CF
:0C33D000000000000000200000000000D1
:04000005080000C12E
:00000001FF
